:020000040800F2
:100000000806002045010008850D00084D0B00087A
:10001000810D0008150300086F180008000000009B
:100020000000000000000000000000003D12000879
:1000300015090008000000007B0E0008A11300084D
:100040005F0100085F0100085F0100085F01000810
:100050005F0100085F0100085F0100085F01000800
:100060005F0100085F0100085F0100085F010008F0
:100070005F0100085F0100085F0100085F010008E0
:100080005F0100085F0100085F0100085F010008D0
:100090005F0100085F0100085F0100085F010008C0
:1000A0005F0100085F0100085F0100085F010008B0
:1000B00009140008451400085F0100085F010008EA
:1000C0005F0100085F0100085F0100085F01000890
:1000D0005F010008D51500085F0100085F010008F6
:1000E0005F0100085F0100085F0100085F01000870
:1000F0005F0100085F0100085F0100085F01000860
:100100005F0100085F0100086D1400085F0100082E
:100110005F0100085F0100085F0100085F0100083F
:100120005F0100085F0100085F0100085F0100082F
:10013000DFF80CD000F018F8004800473519000827
:10014000080600200648804706480047FEE7FEE70D
:10015000FEE7FEE7FEE7FEE7FEE7FEE7FEE7FEE777
:10016000A913000831010008064C074D06E0E068BD
:1001700040F0010394E8070098471034AC42F6D3EE
:10018000FFF7DAFF741900089419000821B182689A
:1001900042F00102826003E0826822F00102826084
:1001A000704721B1826842F48072826003E0826805
:1001B00022F480728260704721B1826842F480121A
:1001C000826003E0826822F48012826070470146F8
:1001D00000208A6802F004020AB1012000E0002039
:1001E0007047014600208A6802F008020AB1012027
:1001F00000E000207047000030B5024600200023D8
:1002000050680F4C20400D790C6844EA05242043C7
:10021000506090680B4C2040D1E902542C434D793A
:1002200044EA450420439060D06A20F470000C7CBE
:10023000641EE4B2234340EA0350D06230BD0000A4
:10024000FFFEF0FFFDF7F1FFF0B504460D4600207C
:100250000021092D11DDE068A5F10A0606EB46072D
:10026000072606FA07F18843A5F10A0606EB4606BB
:1002700003FA06F10843E0600CE0206905EB45074E
:10028000072606FA07F1884305EB450603FA06F14F
:1002900008432061072A0FDA606B561E06EB8607BB
:1002A0001F2606FA07F18843561E06EB860605FA56
:1002B00006F10843606322E00D2A0FDA206BD61F97
:1002C00006EB86071F2606FA07F18843D61F06EBC2
:1002D000860605FA06F10843206310E0E06AA2F101
:1002E0000D0606EB86071F2606FA07F18843A2F1E2
:1002F0000D0606EB860605FA06F10843E062F0BD3E
:10030000816841F0080181607047816841F0040113
:100310008160704700BFFEE7002001490870704708
:100320000F00002000200149087070470E000020D7
:1003300000B587B04FF4004000F0ECFD0121480209
:1003400000F014FE0121042000F010FE0220ADF8A0
:10035000180000208DF81B0006A91E4800F050FB75
:100360000020019001208DF8080000208DF8090080
:100370004FF4002003900020049001208DF8140019
:1003800001A91548FFF738FF07230122114612483B
:10039000FFF75AFF01211048FFF703FF01210E4824
:1003A000FFF70AFF01210C48FFF7F0FE0A48FFF7AC
:1003B000A7FF00BF0848FFF714FF0028FAD106483E
:1003C000FFF7A3FF00BF0448FFF701FF0028FAD1A1
:1003D00007B000BD000801400024014000B58BB00B
:1003E0000121084600F0A2FD114800F089F91148EA
:1003F00000901148019000200290012003900020FD
:1004000004908020059040000690800007902020F6
:100410000890C001099000200A906946044800F045
:1004200015FA0121024800F05FF90BB000BD000091
:10043000080002404C2401401600002008B50121AC
:10044000102000F093FD1020ADF8000003208DF87F
:10045000020010208DF8030069460D4800F0D0FA24
:10046000012210210A4800F05FFB2020ADF80000B7
:1004700003208DF8020010208DF80300694604481F
:1004800000F0BEFA00222021014800F04DFB08BD1B
:100490000010014010B54FF4A06000F0B9FC10BD91
:1004A00010B500F073FD4FF4803000F031FE00F025
:1004B0008DFE0446012C24D1102000F087FA022082
:1004C00000F092FA002000F017FE002000F052FE2B
:1004D000A00200F043FE4FF4E011200400F05CFEA7
:1004E000012000F053FE00BF392000F0DFFD00289E
:1004F000FAD0022000F05EFE00BF00F0F5FD0828F3
:10050000FBD110BD7FB505460C460121084600F021
:100510001DFDADF80850ADF804400020ADF80A000C
:10052000ADF8060001A94FF0804000F0F5FF012270
:100530001146900700F0DEFF1C208DF8000000201F
:100540008DF8010003208DF8020001208DF80300D2
:10055000684600F025FC0121880700F0AEFF7FBD52
:100560007FB505460C460121022000F0EFFCADF8F6
:100570000850ADF804400020ADF80A00ADF80600C0
:1005800001A90F4800F0C8FF20210D4800F0BBFF73
:10059000012211460A4800F0ADFF1D208DF8000031
:1005A00001208DF801008DF802008DF803006846E7
:1005B00000F0F6FB0121024800F07FFF7FBD000044
:1005C000000400407FB505460C460121082000F0DC
:1005D000BDFCADF80850ADF804400020ADF80A00AD
:1005E000ADF8060001A90E4800F096FF0122114661
:1005F0000B4800F07FFF32208DF8000000208DF8BE
:10060000010003208DF8020001208DF803006846E8
:1006100000F0C6FB0121024800F04FFF7FBD000043
:10062000000C004010B586B004460121880300F09C
:100630009DFC0121042000F099FC4FF40070ADF8FE
:10064000140018208DF8170003208DF8160005A956
:10065000224800F0D5F94FF48060ADF81400042072
:100660008DF8170005A91D4800F0CAF901A801F08E
:10067000F2F801940020ADF80800ADF80A00ADF8DA
:100680000C000C20ADF80E000020ADF8100001A900
:10069000134801F06BF825208DF8000001208DF83B
:1006A00001008DF802008DF80300684600F078FB29
:1006B000012240F225510A4801F033F8012240F2AC
:1006C0002771074801F02DF80121054800F0E6FFE9
:1006D00000200449087006B010BD00000008014069
:1006E000003801401400002021B1026842F00102EC
:1006F000026004E002684FF6FE731A400260704721
:1007000001684FF6FE7211400160002101604160F6
:100710008160C1604B49884208D14A49083949681B
:1007200041F00F01474A083A51608AE045491431C7
:10073000884208D143490839496841F0F001414AEB
:10074000083A51607DE03F492831884208D13D494F
:100750000839496841F470613A4A083A516070E0DA
:1007600038493C31884208D136490839496841F452
:100770007041344A083A516063E03249503188424E
:1007800008D130490839496841F470212D4A083AA6
:10079000516056E02B496431884208D12949083913
:1007A000496841F47001274A083A516049E02549F7
:1007B0007831884208D123490839496841F070618D
:1007C000204A083A51603CE01F49884206D1011F87
:1007D000096841F00F01021F116032E01A4914311B
:1007E000884208D11849091F096841F0F001164AEA
:1007F000121F116025E014492831884208D112499E
:10080000091F096841F470610F4A121F116018E056
:100810000D493C31884208D10B49091F096841F450
:100820007041094A121F11600BE00749503188429C
:1008300007D10549091F096841F47021024A121FB6
:1008400011607047080002400804024010B5002201
:10085000026847F6F0739A430C6A8B6823430C696D
:1008600023434C6923438C692343CC6923434C6A5B
:1008700023438C6A23431A430260CB6843600B68AE
:1008800083604B68C36010BD30B50346002016E09E
:10089000B3F900509C68645D0C541C88641C24B23D
:1008A0001C80B3F90040B3F90450AC4201DB0024D2
:1008B0001C80441C20B2DC88641E24B2DC80B3F9A6
:1008C0000640002C01DD9042E2DB30BD30B503462E
:1008D000002018E0B3F900509C6834F8154021F866
:1008E00010401C88641C24B21C80B3F90040B3F98A
:1008F0000450AC4201DB00241C80441C20B2DC8884
:10090000641E24B2DC80B3F90640002C01DD904265
:10091000E0DB30BD704770B50346002016E00C5C8C
:10092000B3F902609D68AC555C88641C24B25C809D
:10093000B3F90240B3F90450AC4201DB00245C80FF
:10094000441C20B2DC88641C24B2DC80B3F906406D
:10095000B3F90450AC4201DA9042E0DB70BD70B5EF
:100960000346002018E031F81040B3F902609D689A
:1009700025F816405C88641C24B25C80B3F9024000
:10098000B3F90450AC4201DB00245C80441C20B26B
:10099000DC88641C24B2DC80B3F90640B3F904504F
:1009A000AC4201DA9042DEDB70BD000010B50120E0
:1009B00004490870012240F22771034800F0B1FE9B
:1009C00010BD0000140000200038014005490968EE
:1009D00021F01001034A11601146096801431160BA
:1009E000704700000020024001460020034A1068C2
:1009F00000F03800084310607047000000200240FB
:100A00002DE9F041024600250026002000230024A5
:100A1000002791F803C00CF00F0591F803C00CF00B
:100A2000100CBCF1000F03D091F802C04CEA050590
:100A300091F800C0BCF1000F31D0146800202BE009
:100A40004FF0010C0CFA00F3B1F800C00CEA0306F9
:100A50009E4220D183004FF00F0C0CFA03F7BC43E9
:100A600005FA03FC4CEA040491F803C0BCF1280F1A
:100A700006D14FF0010C0CFA00FCC2F814C00AE0D9
:100A800091F803C0BCF1480F05D14FF0010C0CFAEE
:100A900000FCC2F810C0401C0828D1D31460B1F883
:100AA00000C0BCF1FF0F34DD546800202EE000F1DF
:100AB000080C4FF0010808FA0CF3B1F800C00CEA7A
:100AC00003069E4221D183004FF00F0C0CFA03F76E
:100AD000BC4305FA03FC4CEA040491F803C0BCF1E2
:100AE000280F05D100F1080C08FA0CF8C2F81480A0
:100AF00091F803C0BCF1480F07D100F1080C4FF08A
:100B0000010808FA0CF8C2F81080401C0828CED35F
:100B10005460BDE8F08102460020D3680B400BB161
:100B2000012000E0002070470AB1016100E041614E
:100B30007047000001480078704700000F00002057
:100B400001480078704700000E00002000BFFEE75B
:100B500010B540F2CF214FF47A70FFF701FDFFF797
:100B6000E7FBFFF73BFC64220249034800F0A2F8D0
:100B700010BD0000400100203401002010B500F03D
:100B800013FC00F04BF800F011F84FF4E13000F0E6
:100B9000A4F800F083F800F005F800F04BF8FFF738
:100BA000D7FF10BD10B5FFF749FC10BD10B5FFF71A
:100BB00071FC10BD00210C4A117051709170002021
:100BC00005E000220849C91C0A54411C08B2072844
:100BD000F7DB0021044A5172044A1170044A117073
:100BE000044A117070470000480000200A000020ED
:100BF0000B0000200C00002030B50B4600240480C0
:100C000044808280C4808360002104E000248568E1
:100C10006C544C1C21B29142F8DB30BD10B5FFF78B
:100C20003FFC10BD704710B5FFF7C4FFFFF7FAFF98
:100C300010BD000030B5164800684FF47A72B0FB62
:100C4000F2F1B1F1807F01D301201DE021F07F405E
:100C5000401E4FF0E022506150170F22002807DAA3
:100C600013071D0E0B4B00F00F04241F1D5503E04E
:100C700013071C0E084B1C5400BF00204FF0E0224D
:100C8000906107201061002008B100BFFEE730BD71
:100C90003000002018ED00E000E400E010B547212E
:100CA00040F2E730FFF72EFC472140F2E730FFF734
:100CB00089FC10BD30B50B4600240480448082803E
:100CC000C4808360002105E00024856825F8114078
:100CD0004C1C21B29142F7DB30BD10B5044600F048
:100CE00005F82046FFF79EFC10BD000010B500245B
:100CF00006E000200949085509490855601C04B25E
:100D0000642CF6DB642205490648FFF775FF642270
:100D100003490548FFF770FF10BD00006C0000207C
:100D2000D0000020540000206000002070B5044670
:100D300011480088401C1049088008460088A042DD
:100D400019DB0020088010210C48FFF7E4FEC0F1F9
:100D50000100C5B22A4610210848FFF7E5FE202110
:100D60000648FFF7D8FEC0F10100C5B22A4620218F
:100D70000248FFF7D9FE70BD0800002000100140B6
:100D800000BFFEE77047000000F01F020121914004
:100D9000024A430942F823107047000080E200E055
:100DA00070B5002100230F22C47804B3154C2468C9
:100DB00004F4E064C4F5E064210AC1F10403CA400C
:100DC000447804FA03F184781440214309010E4C5D
:100DD0000678A155047804F01F050124AC4005787D
:100DE0006D11AD0005F1E025C5F8004109E004787A
:100DF00004F01F050124AC40044D0678761145F837
:100E0000264070BD0CED00E000E400E080E100E071
:100E100002490143024A1160704700000000FA05D0
:100E20000CED00E070B5044600252078802803DA38
:100E30000125204600F002F8284670BD10B5037861
:100E4000002208210DE05406220E445C42EAD4122E
:100E5000445C44F080044454445C1C44E3B24C1EA3
:100E6000E1B20129EFDC42F08004447044781C4474
:100E7000E3B243F08004447210BD704710B5FFF731
:100E800059FE08B1FFF748FA10BD000038B5FFF76A
:100E900057FE78B318480078401C17490870084678
:100EA0000078042821DB684600F0ACF9D0B1BDF829
:100EB0000000C0EBC01040F6FF7190FBF1F0C4B22F
:100EC0000E480F49097844540D480078401C0C49DD
:100ED000087008460078052804DB002008700748E1
:100EE00000F0CCF9002004490870FA20FFF71EFF3B
:100EF000FFF718FA38BD00000000002002000020B3
:100F0000010000200146C88808B901207047002070
:100F1000FCE7000001460020034A506820F44040EE
:100F200008435060704700000010024029B1064A93
:100F300052690243044B5A6104E0034A52698243F6
:100F4000014B5A61704700000010024029B1064A67
:100F5000D2690243044BDA6104E0034AD269824356
:100F6000014BDA61704700000010024029B1064AC7
:100F700092690243044B9A6104E0034A92698243F6
:100F8000014B9A6170470000001002400F48006852
:100F900040F001000D490860084640680C490840CF
:100FA0000A494860084600680A490840074908603D
:100FB0000846006820F4802008600846406820F455
:100FC000FE0048604FF41F00886070470010024028
:100FD0000000FFF8FFFFF6FE30B5002100220024DC
:100FE00000232D4D6D6805F00C0121B1042905D0B9
:100FF000082923D105E0294D056022E0274D056031
:101000001FE0254D6D6805F47012234D6D6805F4E1
:101010008034022505EB92421CB9214D55430560F1
:101020000BE01D4D6D6805F400351DB11C4D554399
:10103000056002E0194D5543056002E0174D05605B
:1010400000BF00BF144D6D6805F0F0010909154D92
:101050006B5C0568DD4045600F4D6D6805F4E0612F
:10106000090A104D6B5C4568DD4085600A4D6D686E
:1010700005F46051C90A0B4D6B5C4568DD40C560E5
:10108000054D6D6805F44041890B074D6B5CC568E3
:10109000B5FBF3F5056130BD0010024000127A0087
:1010A00000093D00180000202800002010B501466E
:1010B0000022002300204A11012A02D1094C236892
:1010C00006E0022A02D1074C236A01E0054C636A5C
:1010D00001F01F02012494401C400CB1012000E0EB
:1010E000002010BD001002400248406800F00C00D3
:1010F000704700000010024001460020034A50687B
:1011000020F0F000084350607047000000100240DB
:101110001149096821F480310F4A116011460968AC
:1011200021F480211160B0F5803F03D0B0F5802F0D
:101130000ED106E00849096841F48031064A116081
:1011400007E00549096841F4A021034A116000E065
:1011500000BF00BF704700000010024001460020A1
:10116000034A506820F4E060084350607047000074
:101170000010024001460020034A506820F46050ED
:1011800040EAC10050607047001002400149086603
:10119000704700000000424202460020044B58689D
:1011A00020F47C1042EA01031843014B5860704759
:1011B0000010024001460020034A506820F003005E
:1011C00008435060704700000010024038B500200E
:1011D00000900024002500BF3120FFF767FF05467F
:1011E0000098401C00900098B0F5A06F01D0002D31
:1011F000F2D03120FFF75AFF08B1012400E00024AB
:10120000204638BD70B5044600250122214603481A
:10121000FFF75CFBC5B2284670BD0000340100201A
:1012200070B504460025012221460348FFF72CFB38
:10123000C5B2284670BD0000540000207047000071
:1012400010B50446E1B2054800F001FB00BF4021A3
:10125000024800F02FFA0028F9D010BD00380140F4
:1012600070B5044600252046FFF7DCFD0546002D3D
:1012700003DD0A21204600F015FB70BD3EB5044693
:1012800071208DF8000001208DF8020020788DF883
:10129000030061788DF80410A1788DF80510E178CD
:1012A0008DF8061021798DF8071000218DF80810AF
:1012B0006846FFF7D5FF3EBD10B500F001F810BD40
:1012C0000CB50020019000903348006840F4803055
:1012D0003149086000BF3048006800F400300090D9
:1012E0000198401C0190009818B90198B0F5A06FC2
:1012F000F1D12948006800F4003010B101200090BD
:1013000001E0002000900098012843D123480068A4
:1013100040F01000214908600846006820F00300F2
:1013200008600846006840F0020008601A484068FB
:10133000194948600846406848600846406840F4DB
:10134000806048600846406820F47C104860084689
:10135000406840F4E81048600846006840F080703B
:10136000086000BF0C48006800F000700028F9D049
:101370000948406820F00300074948600846406873
:1013800040F00200486000BF0348406800F00C00D5
:101390000828F9D10CBD00000010024000200240D6
:1013A00010B500F00BF910BD10B51348006840F0FF
:1013B00001001149086008464068104908400E497C
:1013C0004860084600680E4908400B490860084616
:1013D000006820F4802008600846406820F4FE0081
:1013E00048604FF41F008860FFF766FF4FF0006011
:1013F0000449086010BD0000001002400000FFF822
:10140000FFFFF6FE08ED00E010B50121880700F0AF
:1014100060F8012803D10121800700F04BF807484C
:101420000088401C0549088008460088022804DB23
:101430000020088001200249087010BD1000002023
:101440000E00002010B50121064800F042F818B146
:101450000121044800F02EF80348008800F00AFA41
:1014600010BD0000000400401600002010B501214E
:101470000D4800F02EF8012803D101210A4800F0A0
:1014800019F80A480088401C00B20849088008463C
:10149000B0F90000B0F57A7F04DB0020088001205D
:1014A0000349087010BD0000000C0040120000202D
:1014B0000F000020CA430282704721B1028842F027
:1014C0000102028004E002884FF6FE731A40028097
:1014D000704730B50246002000230024158A05EA33
:1014E0000103958905EA010413B10CB1012000E064
:1014F000002030BD1AB183890B43838102E08389C8
:101500008B438381704782884FF68F731A408280A5
:1015100082880A4382807047002202881D4B9842CD
:101520000ED01D4B98420BD0B0F1804F08D01B4B12
:10153000984205D01A4B984202D01A4B984204D1D7
:101540004FF68F731A404B881A43174B984207D0B7
:10155000164B984204D04FF6FF431A40CB881A43EB
:1015600002808B8883850B8803850A4B98420BD0B9
:10157000094B984208D00E4B984205D00D4B98422B
:1015800002D00D4B984201D10B7A0386012383824E
:1015900070470000002C014000340140000400406E
:1015A00000080040000C0040001000400014004003
:1015B00000400140004401400048014004480068E8
:1015C00020B103480068401E0149086070470000D0
:1015D0002C00002008B50020009040F22551204842
:1015E00000F075F858B12520FFF7CEFB1C4800F03D
:1015F00029F9C0B200909DF8000000F047F90821D9
:10160000174800F057F8012806D10821144800F0C7
:101610002DF8134800F016F940F22771104800F039
:1016200056F8E0B140F227710D4800F028F8252067
:10163000FFF7AAFB6846FFF7F3FD9DF80010084886
:1016400000F005F90748FFF75DFC40B100200649AE
:101650000870002240F22771014800F062F808BDCE
:1016600000380140540000201400002001F40072F2
:10167000B2F5007F00D100BFCA430280704710B5A9
:101680000022002340F66A14A14200D100BF0A12D2
:1016900001249440A3B2DC43048010BD21B18289AF
:1016A00042F40052828104E082894DF6FF731A40B1
:1016B0008281704702460020B1F5007F00D100BF53
:1016C00013880B400BB1012000E00020704770B57B
:1016D0000246002400230025002040F66A16B1428D
:1016E00000D100BFC1F3421501F01F03012606FA25
:1016F00003F3012D02D19689334006E0022D02D179
:10170000168A334001E0968A33400C12012606FA0D
:1017100004F41688344013B10CB1012000E000201D
:1017200070BDF0B50346002400260025002040F6D9
:101730006A17B94200D100BF1846C1F3421401F044
:101740001F06012707FA06F5012C01D10C3004E031
:10175000022C01D1103000E014301AB107682F4379
:10176000076002E00768AF430760F0BD2DE9F0476E
:1017700086B005460E460024A24600BFA1460027BB
:10178000B08900B100BF2F462C8A4CF6FF70044090
:10179000F08804432C82AC894EF6F3100440B088E4
:1017A00031890843718908430443AC81AC8A4FF600
:1017B000FF400440B0890443AC8201A8FFF70CFC51
:1017C0001F48874202D1DDF810A001E0DDF80CA02F
:1017D000A88900F4004040B10AEBCA0000EB0A10EF
:1017E00031684900B0FBF1F807E00AEBCA0000EBF2
:1017F0000A1031688900B0FBF1F86420B8FBF0F002
:1018000004012009642101FB1089A88900F400402B
:1018100040B1322000EBC900B0FBF1F000F007004E
:10182000044308E0322000EB09106421B0FBF1F022
:1018300000F00F0004432C8106B0BDE8F0870000E3
:101840000038014001468888C0F308007047C1F3A2
:101850000802828070474FF4165101600021818098
:10186000C18001810C21418100218181704700BF2D
:10187000FEE7000031B50024012269460248FFF767
:101880006EF8C4B2204638BD3401002031B50024C2
:10189000012269460248FFF73EF8C4B2204638BD2F
:1018A0006000002070B504460D4600262A462146F9
:1018B0000648FFF730F8C6B2642E04DA0448007810
:1018C00008B9FFF773F8304670BD000054000020DF
:1018D00014000020014A024900F013B8251900083D
:1018E0004400002002E008C8121F08C1002AFAD1F3
:1018F00070477047002001E001C1121F002AFBD190
:1019000070472DE9F04116460F460446002503E0D6
:101910003946B047641C6D1C20780028F8D1284651
:10192000BDE8F08170B504460D46E0B2FFF788FCD3
:10193000204670BDFFF777F9FFF720F904A0FFF705
:10194000C9FF03E0FFF7A2FAFFF798FAFAE70000F1
:10195000496E69742053797374656D2068617320D2
:101960006265656E2066696E69736865642E0D0A2E
:10197000000000009419000800000020480000004A
:10198000E4180008DC19000848000020C005000029
:10199000F418000800000000000000000000000033
:1019A0000000000000000000000000000000000037
:1019B00001020304010203040607080902040608E1
:1019C0000000000000A24A04000000000000000027
:0C19D000010203040607080900000000E3
:0400000508000131BD
:00000001FF
