:020000040800F2
:10000000280D002045010008050A00084D080008D9
:10001000010A00082F0200085F1600080000000017
:1000200000000000000000000000000009100008AF
:100030003105000800000000A50A0008C9110008E9
:100040005F0100085F0100085F0100085F01000810
:100050005F0100085F0100085F0100085F01000800
:100060005F0100085F0100085F0100085F010008F0
:100070005F0100085F0100085F0100085F010008E0
:100080005F0100085F0100085F0100085F010008D0
:100090005F0100085F0100085F0100085F010008C0
:1000A0005F0100085F0100085F0100085F010008B0
:1000B000311200085F0100085F0100085F010008BD
:1000C0005F0100085F0100085F0100085F01000890
:1000D0005F010008C51300085F0100085F01000808
:1000E0005F0100085F0100085F0100085F01000870
:1000F0005F0100085F0100085F0100085F01000860
:100100005F0100085F0100086D1200085F01000830
:100110005F0100085F0100085F0100085F0100083F
:100120005F0100085F0100085F0100085F0100082F
:10013000DFF80CD000F04AF8004800475D1B0008CB
:10014000280D00200648804706480047FEE7FEE7E6
:10015000FEE7FEE7FEE7FEE7FEE7FEE7FEE7FEE777
:10016000D1110008310100082DE9F05F054600209B
:1001700092469B4688460646814640241BE0284618
:1001800041464746224600F042F853465A46C01AB6
:10019000914110D311461846224600F029F82D1A35
:1001A00067EB01084F4622460120002100F020F8AD
:1001B00017EB00094E41201EA4F10104DFDC484684
:1001C00031462A464346BDE8F09F0000064C074DE5
:1001D00006E0E06840F0010394E807009847103417
:1001E000AC42F6D3FFF7A8FFAC1B0008CC1B0008FD
:1001F000202A04DB203A00FA02F1002070479140E7
:10020000C2F1200320FA03F3194390407047202ADB
:1002100004DB203A21FA02F00021704721FA02F3B0
:10022000D040C2F12002914008431946704700BFF8
:10023000FEE7000000200149087070470F00002011
:1002400000200149087070470E00002008B5012108
:10025000042000F0EBFC0121102000F0E7FC02205C
:10026000ADF8000048208DF8030069460B4800F007
:100270003EFA0420ADF8000048208DF803006946DE
:10028000064800F034FA0120ADF8000048208DF84F
:1002900003006946024800F02AFA08BD0010014038
:1002A0000008014008B50121102000F0BFFC10201B
:1002B000ADF8000003208DF8020010208DF8030037
:1002C00069460D4800F013FA012210210A4800F097
:1002D000ABFA2020ADF8000003208DF802001020BA
:1002E0008DF803006946044800F001FA002220213D
:1002F000014800F099FA08BD0010014010B54FF414
:10030000A06000F0C5FB10BD10B500F09FFC4FF4DD
:10031000803000F05DFD00F0B9FD0446012C24D1D1
:10032000102000F075F9022000F0B6F9002000F06E
:1003300043FD002000F07EFDA00200F06FFD4FF4B1
:10034000E011200400F088FD012000F07FFD00BFD7
:10035000392000F00BFD0028FAD0022000F08AFDC1
:1003600000BF00F021FD0828FBD110BD7FB5054678
:100370000C460121084600F049FCADF80850ADF8E4
:1003800004400020ADF80A00ADF8060001A94FF0C6
:10039000804000F0B9FF01221146900700F0AAFF4B
:1003A0001C208DF8000000208DF8010003208DF83E
:1003B000020001208DF80300684600F031FB0121A6
:1003C000880700F07AFF7FBD7FB505460C46012106
:1003D000082000F01BFCADF80850ADF804400020E8
:1003E000ADF80A00ADF8060001A90E4800F08CFF38
:1003F000012211460B4800F07DFF32208DF80000ED
:1004000000208DF8010003208DF8020001208DF8F6
:100410000300684600F004FB0121024800F04DFF94
:100420007FBD0000000C004010B586B004460121DD
:10043000880300F0FBFB0121042000F0F7FB4FF4E0
:100440000070ADF8140018208DF8170003208DF807
:10045000160005A9224800F04AF94FF48060ADF873
:10046000140004208DF8170005A91D4800F03FF97D
:1004700001A801F0E8F801940020ADF80800ADF8FB
:100480000A00ADF80C000C20ADF80E000020ADF80D
:10049000100001A9134801F061F825208DF8000033
:1004A00001208DF801008DF802008DF803006846E8
:1004B00000F0B6FA012240F225510A4801F029F86D
:1004C000012240F22771074801F023F80121054875
:1004D00000F0DCFF00200449087006B010BD0000E9
:1004E00000080140003801401400002030B50346E8
:1004F000002016E0B3F900509C68645D0C541C8821
:10050000641C24B21C80B3F90040B3F90450AC421F
:1005100001DB00241C80441C20B2DC88641E24B251
:10052000DC80B3F90640002C01DD9042E2DB30BDF7
:10053000704770B50346002016E00C5CB3F902600A
:100540009D68AC555C88641C24B25C80B3F90240A1
:10055000B3F90450AC4201DB00245C80441C20B29F
:10056000DC88641C24B2DC80B3F90640B3F9045083
:10057000AC4201DA9042E0DB70BD000030B50446C9
:1005800004254FF4302000F09FF80546042D17D1C4
:100590000C48006940F002000A49086108464461BD
:1005A000006940F0400008614FF4302000F08CF802
:1005B00005460448006941F6FD710840014908619B
:1005C000284630BD0020024004200B49C96801F0D4
:1005D000010109B101200EE00749C96801F00401D9
:1005E00009B1022007E00449C96801F0100109B10E
:1005F000032000E004207047002002400348006907
:1006000040F080000149086170470000002002406E
:100610000549096821F01001034A11601146096873
:1006200001431160704700000020024078B5064683
:100630000C46042500200090E80200F045F805462D
:10064000042D24D11348006940F0010011490861CC
:100650003480E80200F038F80546042D10D1B01CB3
:100660000090200C00990880E80200F02DF8054663
:100670000848006941F6FE7108400649086106E035
:100680000448006941F6FE710840024908612846A5
:1006900078BD00000020024001460020034A106897
:1006A00000F038000843106070470000002002404E
:1006B0000248034948600348486070472301674582
:1006C00000200240AB89EFCD00B502460423FFF7BE
:1006D0007BFF034603E0FFF777FF0346521E012B23
:1006E00001D1002AF7D102B90523184600BD2DE932
:1006F000F0410246002500260020002300240027A8
:1007000091F803C00CF00F0591F803C00CF0100C29
:10071000BCF1000F03D091F802C04CEA050591F836
:1007200000C0BCF1000F31D0146800202BE04FF066
:10073000010C0CFA00F3B1F800C00CEA03069E426B
:1007400020D183004FF00F0C0CFA03F7BC4305FADD
:1007500003FC4CEA040491F803C0BCF1280F06D155
:100760004FF0010C0CFA00FCC2F814C00AE091F83A
:1007700003C0BCF1480F05D14FF0010C0CFA00FC8E
:10078000C2F810C0401C0828D1D31460B1F800C0D2
:10079000BCF1FF0F34DD546800202EE000F1080C9E
:1007A0004FF0010808FA0CF3B1F800C00CEA030698
:1007B0009E4221D183004FF00F0C0CFA03F7BC438B
:1007C00005FA03FC4CEA040491F803C0BCF1280FBD
:1007D00005D100F1080C08FA0CF8C2F8148091F861
:1007E00003C0BCF1480F07D100F1080C4FF001081D
:1007F00008FA0CF8C2F81080401C0828CED35460C8
:10080000BDE8F0810246002093680B400BB1012047
:1008100000E00020704702460020D3680B400BB177
:10082000012000E0002070470AB1016100E0416151
:100830007047000001480078704700000F0000205A
:1008400001480078704700000E00002000BFFEE75E
:10085000704710B500F0BCFC00F03BF800F022F847
:100860004FF4E13000F07AF800F06CF800F016F880
:1008700000F034F800F006F800F018F8FFF7E8FF91
:1008800010BD000010B5FFF7E1FC00200249087020
:100890004870887010BD00000400002010B5FFF7FC
:1008A00001FD10BD10B5FFF729FD10BD704730B533
:1008B0000B460024048044808280C4808360002131
:1008C00004E0002485686C544C1C21B29142F8DB92
:1008D00030BD10B5FFF718FD10BD704730B5164894
:1008E00000684FF47A72B0FBF2F1B1F1807F01D36E
:1008F00001201DE021F07F40401E4FF0E0225061BA
:1009000050170F22002807DA13071D0E0B4B00F0BB
:100910000F04241F1D5503E013071C0E084B1C5425
:1009200000BF00204FF0E0229061072010610020FE
:1009300008B100BFFEE730BD3000002018ED00E038
:1009400000E400E010B5472140F2E730FFF70EFD6C
:10095000472140F2E730FFF737FD10BD10B50446E0
:1009600000F004F82046FFF75FFD10BD10B500242D
:1009700006E000200949085509490855601C04B2E1
:10098000642CF6DB642205490648FFF790FF6422D9
:1009900003490548FFF78BFF10BD000060000020F1
:1009A000C4000020480000205400002070B5044618
:1009B00011480088401C1049088008460088A04261
:1009C00019DB0020088010210C48FFF724FFC0F13C
:1009D0000100C5B22A4610210848FFF725FF202153
:1009E0000648FFF718FFC0F10100C5B22A462021D2
:1009F0000248FFF719FF70BD0200002000100140FF
:100A000000BFFEE77047000000F01F020121914087
:100A1000024A430942F823107047000080E200E0D8
:100A200070B5002100230F22C47804B3154C24684C
:100A300004F4E064C4F5E064210AC1F10403CA408F
:100A4000447804FA03F184781440214309010E4CE0
:100A50000678A155047804F01F050124AC40057800
:100A60006D11AD0005F1E025C5F8004109E00478FD
:100A700004F01F050124AC40044D0678761145F8BA
:100A8000264070BD0CED00E000E400E080E100E0F5
:100A900002490143024A1160704700000000FA0554
:100AA0000CED00E0704710B5FFF7C4FE08B1FFF78A
:100AB000C1FB10BD10B5FFF7C3FE10B3FA20FFF75E
:100AC00075FF1048B0F90000042812DB0E4A0F49E8
:100AD000002000F09BFA0E4A0E49012000F096FA21
:100AE0000D4A0E49022000F091FA002005490880C5
:100AF00005E004480088401C00B202490880FFF766
:100B00009FFB10BD00000020210B0008F90B00081E
:100B1000650B0008FB0B0008A90B0008FD0B000883
:100B200010B502220349044800F0F2F903A000F0D6
:100B3000BBFD10BD9C1B000800C000085772697403
:100B40006520466C6173683A3078464646464646AC
:100B500046462C20307846464646464646460D0ACE
:100B60000000000010B502220349044800F0D0F94B
:100B700003A000F099FD10BDA41B000800C00008F0
:100B8000577269746520466C6173683A30783736FD
:100B90003534333231302C203078383941424344B7
:100BA00045460D0A0000000010B5E4B00BA000F0AF
:100BB0007BFD022269460C4800F095F9002406E00E
:100BC0005DF8241009A000F06FFD601C04B2022C37
:100BD000F6DB08A000F068FD64B010BD52656164EA
:100BE00020466C6173683A0000C0000825303878F0
:100BF000000000000D0A0000704770477047014672
:100C0000C88808B9012070470020FCE729B1064ACE
:100C1000D2690243044BDA6104E0034AD269824399
:100C2000014BDA61704700000010024029B1064A0A
:100C300092690243044B9A6104E0034A9269824339
:100C4000014B9A6170470000001002400F48006895
:100C500040F001000D490860084640680C49084012
:100C60000A494860084600680A4908400749086080
:100C70000846006820F4802008600846406820F498
:100C8000FE0048604FF41F0088607047001002406B
:100C90000000FFF8FFFFF6FE30B50021002200241F
:100CA00000232D4D6D6805F00C0121B1042905D0FC
:100CB000082923D105E0294D056022E0274D056074
:100CC0001FE0254D6D6805F47012234D6D6805F425
:100CD0008034022505EB92421CB9214D5543056035
:100CE0000BE01D4D6D6805F400351DB11C4D5543DD
:100CF000056002E0194D5543056002E0174D05609F
:100D000000BF00BF144D6D6805F0F0010909154DD5
:100D10006B5C0568DD4045600F4D6D6805F4E06172
:100D2000090A104D6B5C4568DD4085600A4D6D68B1
:100D300005F46051C90A0B4D6B5C4568DD40C56028
:100D4000054D6D6805F44041890B074D6B5CC56826
:100D5000B5FBF3F5056130BD0010024000127A00CA
:100D600000093D00150000202500002010B50146B7
:100D70000022002300204A11012A02D1094C2368D5
:100D800006E0022A02D1074C236A01E0054C636A9F
:100D900001F01F02012494401C400CB1012000E02E
:100DA000002010BD001002400248406800F00C0016
:100DB000704700000010024001460020034A5068BE
:100DC00020F0F0000843506070470000001002401F
:100DD0001149096821F480310F4A116011460968F0
:100DE00021F480211160B0F5803F03D0B0F5802F51
:100DF0000ED106E00849096841F48031064A1160C5
:100E000007E00549096841F4A021034A116000E0A8
:100E100000BF00BF704700000010024001460020E4
:100E2000034A506820F4E0600843506070470000B7
:100E30000010024001460020034A506820F4605030
:100E400040EAC10050607047001002400149086646
:100E5000704700000000424202460020044B5868E0
:100E600020F47C1042EA01031843014B586070479C
:100E70000010024001460020034A506820F00300A1
:100E800008435060704700000010024038B5002051
:100E900000900024002500BF3120FFF767FF0546C2
:100EA0000098401C00900098B0F5A06F01D0002D74
:100EB000F2D03120FFF75AFF08B1012400E00024EE
:100EC000204638BD70B5044600250122214603485E
:100ED000FFF70CFBC5B2284670BD0000480000209B
:100EE0000146086870472DE9F04105460E46174651
:100EF000A846002408E04046FFF7F2FF46F8240029
:100F000008F10408601C84B2BC42F4DBBDE8F08147
:100F10002DE9F74F8246D046029FB8F1006F02D309
:100F20003548804504D335A000F0BEFBBDE8FE8FF8
:100F3000FFF7BEFBA8F1006B4FEADB26CBF3880975
:100F4000C9F50074A74200DC3C464FE04FF0006159
:100F500001EBC6208A142B49FFF7C5FF002509E0E5
:100F600009EB0500274951F82000401C00B103E0BF
:100F7000681C85B2A542F3DB00BFA5421CDA4FF026
:100F8000006101EBC620FFF7F9FA002509E001989E
:100F900050F8250009EB05011A4A42F82100681CA7
:100FA00085B2A542F3DB4FF0006101EBC6208A1445
:100FB000144900F063FB04E022464046019900F02A
:100FC0005DFBA74200D112E0761C4FF000090198AA
:100FD00000EB8400019008EB8408381B87B2B7F55A
:100FE000007F02DD4FF4007400E03C46AEE700BF36
:100FF000FFF704FB00BF99E7FCFF03086572726FFF
:10100000720D0A00280100207047000070B50446E8
:101010000D4616462548005D4006000E234908553A
:1010200024B1012C0CD0022C1ED113E00221204847
:10103000FFF7E8FB1D49095D08431C49085514E00A
:1010400004211B48FFF7DEFB1849095D08431749D7
:1010500008550AE001211748FFF7D4FB1349095D41
:1010600008431249085500E000BF00BF0F48005D6B
:101070001149095D884208D11048005D012804D15A
:10108000B04700200D4908550EE00848005D0A49A8
:10109000095DC943C9B2884206D10848005D18B944
:1010A000A84701200549085570BD00000700002031
:1010B0000010014000080140040000200A00002048
:1010C00010B50446E1B2054800F0B9FA00BF40216E
:1010D000024800F0E7F90028F9D010BD00380140BF
:1010E00010B500F001F810BD0CB500200190009083
:1010F0003348006840F480303149086000BF304810
:10110000006800F4003000900198401C01900098A5
:1011100018B90198B0F5A06FF1D12948006800F422
:10112000003010B10120009001E0002000900098F4
:10113000012843D12348006840F01000214908608D
:101140000846006820F0030008600846006840F088
:10115000020008601A48406819494860084640681B
:1011600048600846406840F480604860084640682F
:1011700020F47C1048600846406840F4E81048605D
:101180000846006840F08070086000BF0C480068A6
:1011900000F000700028F9D00948406820F00300F2
:1011A000074948600846406840F00200486000BFB8
:1011B0000348406800F00C000828F9D10CBD00007D
:1011C000001002400020024010B500F0EFF810BD02
:1011D00010B51348006840F0010011490860084646
:1011E0004068104908400E494860084600680E49AA
:1011F00008400B4908600846006820F48020086019
:101200000846406820F4FE0048604FF41F008860E4
:10121000FFF766FF4FF000600449086010BD000052
:10122000001002400000FFF8FFFFF6FE08ED00E0AE
:1012300010B50121880700F04CF8012803D10121E5
:10124000800700F037F807480088401C05490880EF
:1012500008460088022804DB00200880012002499B
:10126000087010BD100000200E00002010B50121F4
:101270000D4800F02EF8012803D101210A4800F0A2
:1012800019F80A480088401C00B20849088008463E
:10129000B0F90000B0F57A7F04DB0020088001205F
:1012A0000349087010BD0000000C0040120000202F
:1012B0000F000020CA430282704721B1028842F029
:1012C0000102028004E002884FF6FE731A40028099
:1012D000704730B50246002000230024158A05EA35
:1012E0000103958905EA010413B10CB1012000E066
:1012F000002030BD1AB183890B43838102E08389CA
:101300008B43838170470000002202881D4B984266
:101310000ED01D4B98420BD0B0F1804F08D01B4B24
:10132000984205D01A4B984202D01A4B984204D1E9
:101330004FF68F731A404B881A43174B984207D0C9
:10134000164B984204D04FF6FF431A40CB881A43FD
:1013500002808B8883850B8803850A4B98420BD0CB
:10136000094B984208D00E4B984205D00D4B98423D
:1013700002D00D4B984201D10B7A03860123838260
:1013800070470000002C0140003401400004004080
:1013900000080040000C0040001000400014004015
:1013A00000400140004401400048014004480068FA
:1013B00020B103480068401E0149086070470000E2
:1013C0002C00002008B50020009040F22551204854
:1013D00000F075F858B12520FFF716FB1C4800F007
:1013E00029F9C0B200909DF8000000F03BF90821F7
:1013F000174800F057F8012806D10821144800F0DA
:101400002DF8134800F016F940F22771104800F04B
:1014100056F8E0B140F227710D4800F028F8252079
:10142000FFF7F2FA6846FFF74DFD9DF800100848F7
:1014300000F005F90748FFF7E2FB40B1002006493C
:101440000870002240F22771014800F062F808BDE0
:1014500000380140480000201400002001F4007210
:10146000B2F5007F00D100BFCA430280704710B5BB
:101470000022002340F66A14A14200D100BF0A12E4
:1014800001249440A3B2DC43048010BD21B18289C1
:1014900042F40052828104E082894DF6FF731A40C3
:1014A0008281704702460020B1F5007F00D100BF65
:1014B00013880B400BB1012000E00020704770B58D
:1014C0000246002400230025002040F66A16B1429F
:1014D00000D100BFC1F3421501F01F03012606FA37
:1014E00003F3012D02D19689334006E0022D02D18B
:1014F000168A334001E0968A33400C12012606FA20
:1015000004F41688344013B10CB1012000E000202F
:1015100070BDF0B50346002400260025002040F6EB
:101520006A17B94200D100BF1846C1F3421401F056
:101530001F06012707FA06F5012C01D10C3004E043
:10154000022C01D1103000E014301AB107682F438B
:10155000076002E00768AF430760F0BD2DE9F04780
:1015600086B005460E460024A24600BFA1460027CD
:10157000B08900B100BF2F462C8A4CF6FF700440A2
:10158000F08804432C82AC894EF6F3100440B088F6
:1015900031890843718908430443AC81AC8A4FF612
:1015A000FF400440B0890443AC8201A8FFF774FBFC
:1015B0001F48874202D1DDF810A001E0DDF80CA041
:1015C000A88900F4004040B10AEBCA0000EB0A1001
:1015D00031684900B0FBF1F807E00AEBCA0000EB04
:1015E0000A1031688900B0FBF1F86420B8FBF0F014
:1015F00004012009642101FB1089A88900F400403E
:1016000040B1322000EBC900B0FBF1F000F0070060
:10161000044308E0322000EB09106421B0FBF1F034
:1016200000F00F0004432C8106B0BDE8F0870000F5
:101630000038014001468888C0F308007047C1F3B4
:101640000802828070474FF41651016000218180AA
:10165000C18001810C21418100218181704700BF3F
:10166000FEE7000031B50024012269460248FEF77A
:1016700060FFC4B2204638BD540000202DE9F0417F
:1016800005460E461746A846002408E056F82410E2
:101690004046FEF7CBFF08F10408601C84B2BC4250
:1016A000F4DBBDE8F08100000FB4054B10B503A9D1
:1016B000044A029800F018F810BC5DF814FB000012
:1016C0004B1B00084400002002E008C8121F08C19C
:1016D000002AFAD170477047002001E001C1121FB3
:1016E000002AFBD1704700002DE9FF4F8DB00F4657
:1016F0000546002606E025280BD0DDE90F129047AD
:101700006D1C761C28780028F5D111B03046BDE854
:10171000F08F0024A246A1460122EC4900E00443D8
:1017200015F8013F203B02FA03F00842F7D1287870
:101730002A2810D06FF02F022878A0F13001092953
:1017400014D80AEB8A0102EB410144F0020400EBD9
:10175000010A6D1CF0E701CF5FEA000A03D544F4EB
:101760000054CAF1000A44F002046D1C28782E28A7
:1017700017D115F8010F44F004042A280ED06FF099
:101780002F022878A0F1300109290AD809EB890134
:1017900002EB410100EB01096D1CF2E757F8049BD5
:1017A0006D1C28786C280FD006DC4C2817D06828D0
:1017B0000DD06A2814D104E0742810D07A280FD1F3
:1017C0000DE044F400140AE044F4801401E044F411
:1017D00040146978814202D104F580146D1C6D1C9F
:1017E0002A786E2A1FD00CDC632A31D004DC002A50
:1017F0008BD0582A11D1A3E0642A68D0692A0CD171
:1018000065E0732A2ED004DC6F2A73D0702A04D1CD
:101810009BE0752A6FD0782A6ED01046DDE90F1252
:101820009047761C50E1C4F30250022806D00328EA
:1018300009D0042801CF09D0066045E101CFF11796
:10184000C0E9006140E101CF06803DE106703BE167
:1018500017F8040B8DF8000000208DF80100EB460E
:10186000012003E057F804BB4FF0FF3061074FF051
:10187000000102D40DE008F10101884649450FDA64
:101880008045F8DB1BF808100029F4D108E008F1C6
:10189000010188468142FADB1BF808100029F6D1C5
:1018A000DDE90F23AAEB08008146214600F036F956
:1018B000304400EB080604E0DDE90F121BF8010BD1
:1018C0009047B8F10108F7D221464846F7E00A21CF
:1018D000C4F302534FF0000B0891022B04D001CF48
:1018E000C117032B09D00AE0FF1D27F00707F7E80F
:1018F000020108E032E01FE020E000B2C117042B33
:1019000001D140B2C117031E71F1000307DA4FF095
:10191000000CD0EB0C006CEB01012D2302E0230541
:1019200004D52B238DF82430012303E0E30701D0F5
:101930002023F7E7984658E00A2110E010210EE036
:1019400010204FF0000B08900CE010214FF0000B1E
:1019500044F004044FF00809089103E008214FF017
:10196000000B0891C4F30253022B04D001CF0021D5
:10197000032B06D006E0FF1D27F00707F7E802015A
:1019800003E080B2042B00D1C0B24FF0000823075F
:101990002BD5702A07D0DDF820C08CF0100C5CEA43
:1019A0000B0C05D00EE040238DF82430012308E015
:1019B00050EA010306D030238DF824308DF825201D
:1019C00002239846DDF820C08CF0080C5CEA0B0C72
:1019D0000BD150EA010301D1630706D530238DF8FE
:1019E00024304FF00108A9F10109582A04D038A287
:1019F0000B9208AA0A920BE03AA2F9E75B46089A12
:101A0000FEF7B2FB0B9B9B5C0A9A521E0A92137064
:101A100050EA0102F2D10A98ADEB000000F1200B70
:101A2000600702D524F4803401E04FF00109D94564
:101A300002DDA9EB0B0000E0002000EB0B014144AC
:101A40000890AAEB010AE00306D4DDE90F23214642
:101A5000504600F063F806444FF0000908E009A979
:101A600011F80900DDE90F12904709F10109761C10
:101A7000C145F4DBE0030CD5DDE90F2321465046D8
:101A800000F04CF8064404E0DDE90F1230209047E6
:101A9000761C0899481E08900029F5DC08E00A9891
:101AA0000A990078491C0A91DDE90F129047761CCB
:101AB000BBF10001ABF1010BF1DC21465046DDE941
:101AC0000F2300F019F806446D1C1BE609280100DD
:101AD00030313233343536373839616263646566A4
:101AE0000000000030313233343536373839414266
:101AF00043444546000000002DE9F041044600251E
:101B00001E461746880404D405E039462020B04715
:101B10006D1C641EF9D52846BDE8F0812DE9F04121
:101B2000044600251E469046C80301D5302700E034
:101B30002027880404D505E041463846B0476D1C8F
:101B4000641EF9D52846BDE8F08170B504460D46FF
:101B5000E0B2FFF7B5FA204670BD0000FEF7BDFE0B
:101B6000FEF777FE04A0FFF79FFD03E0FEF7A2FF5C
:101B7000FEF799FFFAE70000496E69742053797304
:101B800074656D20686173206265656E2066696E9C
:101B900069736865642E0D0A00000000FFFFFFFFF7
:101BA000FFFFFFFF10325476EFCDAB89CC1B00084E
:101BB0000000002048000000C8160008141C00089F
:101BC00048000020E00C0000D816000800000000CB
:101BD0000000000000000000000000000000000005
:101BE00000000000000102030401020304060708CC
:101BF00009020406080000000000000000A24A04D8
:101C000000000000000000000102030406070809AC
:041C100000000000D0
:0400000508000131BD
:00000001FF
