:020000040800F2
:100000002004002045010008C5050008B1040008CF
:10001000C10500088D0100083D0B0008000000002C
:10002000000000000000000000000000550800086B
:100030002D030008000000004D06000841090008DB
:100040005F0100085F0100085F0100085F01000810
:100050005F0100085F0100085F0100085F01000800
:100060005F0100085F0100085F0100085F010008F0
:100070005F0100085F0100085F0100085F010008E0
:100080005F0100085F0100085F0100085F010008D0
:100090005F0100085F0100085F0100085F010008C0
:1000A0005F0100085F0100085F0100085F010008B0
:1000B000A90900085F0100085F0100085F0100084E
:1000C0005F0100085F0100085F0100085F01000890
:1000D0005F0100085F0100085F0100085F01000880
:1000E0005F0100085F0100085F0100085F01000870
:1000F0005F0100085F0100085F0100085F01000860
:100100005F0100085F010008E50900085F010008C1
:100110005F0100085F0100085F0100085F0100083F
:100120005F0100085F0100085F0100085F0100082F
:10013000DFF80CD000F018F8004800475F0B00080B
:10014000200400200648804706480047FEE7FEE7F7
:10015000FEE7FEE7FEE7FEE7FEE7FEE7FEE7FEE777
:100160004909000831010008064C074D06E0E06827
:1001700040F0010394E8070098471034AC42F6D3EE
:10018000FFF7DAFF740B0008940B000800BFFEE7CE
:100190000020014908707047030000200020014939
:1001A000087070470200002008B50121102000F0FF
:1001B0006FFA1020ADF8000003208DF80200102027
:1001C0008DF8030069460D4800F0CCF8012210219B
:1001D0000A4800F05BF92020ADF8000003208DF8FC
:1001E000020010208DF803006946044800F0BAF8B8
:1001F00000222021014800F049F908BD001001400B
:1002000010B54FF4A06000F017FA10BD10B500F063
:100210004FFA4FF4803000F0A3FA00F0FFFA0446E2
:10022000012C24D1102000F083F8022000F08EF879
:10023000002000F089FA002000F0C4FAA00200F0CB
:10024000B5FA4FF4E011200400F0CEFA012000F0DE
:10025000C5FA00BF392000F051FA0028FAD0022078
:1002600000F0D0FA00BF00F067FA0828FBD110BDFB
:100270007FB505460C460121084600F0F9F9ADF8B6
:100280000850ADF804400020ADF80A00ADF80600B3
:1002900001A94FF0804000F0F3FB012211469007C6
:1002A00000F0E4FB1C208DF8000000208DF8010018
:1002B00003208DF8020001208DF80300684600F04D
:1002C00083F90121880700F0B4FB7FBD7FB50546A7
:1002D0000C460121082000F0CBF9ADF80850ADF82C
:1002E00004400020ADF80A00ADF8060001A90E4850
:1002F00000F0C6FB012211460B4800F0B7FB32208C
:100300008DF8000000208DF8010003208DF8020018
:1003100001208DF80300684600F056F901210248DB
:1003200000F087FB7FBD0000000C0040704700001C
:100330000549096821F01001034A11601146096856
:100340000143116070470000002002400146002078
:10035000034A106800F0380008431060704700003E
:10036000002002402DE9F041024600250026002031
:1003700000230024002791F803C00CF00F0591F82A
:1003800003C00CF0100CBCF1000F03D091F802C0B8
:100390004CEA050591F800C0BCF1000F31D014689B
:1003A00000202BE04FF0010C0CFA00F3B1F800C074
:1003B0000CEA03069E4220D183004FF00F0C0CFA8A
:1003C00003F7BC4305FA03FC4CEA040491F803C0AC
:1003D000BCF1280F06D14FF0010C0CFA00FCC2F85A
:1003E00014C00AE091F803C0BCF1480F05D14FF0EA
:1003F000010C0CFA00FCC2F810C0401C0828D1D334
:100400001460B1F800C0BCF1FF0F34DD5468002067
:100410002EE000F1080C4FF0010808FA0CF3B1F8D7
:1004200000C00CEA03069E4221D183004FF00F0C5E
:100430000CFA03F7BC4305FA03FC4CEA040491F8F8
:1004400003C0BCF1280F05D100F1080C08FA0CF824
:10045000C2F8148091F803C0BCF1480F07D100F135
:10046000080C4FF0010808FA0CF8C2F81080401C84
:100470000828CED35460BDE8F08102460020D3683E
:100480000B400BB1012000E0002070470AB1016170
:1004900000E04161704700000148007870470000AB
:1004A000030000200148007870470000020000208F
:1004B00000BFFEE710B500F047FA00F011F800F0B9
:1004C0000BF800F047F800F003F800F00FF810BD4B
:1004D00010B5FFF769FE10BD10B5FFF791FE10BD16
:1004E00010B5FFF793FE10BD7047000030B51648F9
:1004F00000684FF47A72B0FBF2F1B1F1807F01D362
:1005000001201DE021F07F40401E4FF0E0225061AD
:1005100050170F22002807DA13071D0E0B4B00F0AF
:100520000F04241F1D5503E013071C0E084B1C5419
:1005300000BF00204FF0E0229061072010610020F2
:1005400008B100BFFEE730BD0C00002018ED00E050
:1005500000E400E010B5472140F2E730FFF788FEE5
:10056000472140F2E730FFF7B1FE10BD70B50446F9
:1005700011480088401C1049088008460088A042A5
:1005800019DB0020088010210C48FFF776FFC0F12E
:100590000100C5B22A4610210848FFF777FF202145
:1005A0000648FFF76AFFC0F10100C5B22A462021C4
:1005B0000248FFF76BFF70BD0000002000100140F3
:1005C00000BFFEE77047000070B5002100230F2236
:1005D000C47804B3154C246804F4E064C4F5E06402
:1005E000210AC1F10403CA40447804FA03F1847873
:1005F0001440214309010E4C0678A155047804F0FB
:100600001F050124AC4005786D11AD0005F1E02512
:10061000C5F8004109E0047804F01F050124AC404E
:10062000044D0678761145F8264070BD0CED00E0CB
:1006300000E400E080E100E002490143024A116069
:10064000704700000000FA050CED00E0704710B59F
:10065000FFF722FF08B1FFF79BFD10BD10B5FFF7B4
:1006600021FF20B1FA20FFF781FFFFF797FD10BDB2
:1006700029B1064AD2690243044BDA6104E0034A15
:10068000D2698243014BDA617047000000100240DA
:1006900029B1064A92690243044B9A6104E0034A75
:1006A00092698243014B9A6170470000001002403A
:1006B0000F48006840F001000D4908600846406896
:1006C0000C4908400A494860084600680A49084041
:1006D000074908600846006820F480200860084642
:1006E000406820F4FE0048604FF41F0088607047A7
:1006F000001002400000FFF8FFFFF6FE10B50146B3
:100700000022002300204A11012A02D1094C23684B
:1007100006E0022A02D1074C236A01E0054C636A15
:1007200001F01F02012494401C400CB1012000E0A4
:10073000002010BD001002400248406800F00C008C
:10074000704700000010024001460020034A506834
:1007500020F0F00008435060704700000010024095
:100760001149096821F480310F4A11601146096866
:1007700021F480211160B0F5803F03D0B0F5802FC7
:100780000ED106E00849096841F48031064A11603B
:1007900007E00549096841F4A021034A116000E01F
:1007A00000BF00BF7047000000100240014600205B
:1007B000034A506820F4E06008435060704700002E
:1007C0000010024001460020034A506820F46050A7
:1007D00040EAC100506070470010024001490866BD
:1007E000704700000000424202460020044B586857
:1007F00020F47C1042EA01031843014B5860704713
:100800000010024001460020034A506820F0030017
:1008100008435060704700000010024038B50020C7
:1008200000900024002500BF3120FFF767FF054638
:100830000098401C00900098B0F5A06F01D0002DEA
:10084000F2D03120FFF75AFF08B1012400E0002464
:10085000204638BD704710B500F002F810BD00000A
:100860000CB50020019000903348006840F48030BF
:100870003149086000BF3048006800F40030009043
:100880000198401C0190009818B90198B0F5A06F2C
:10089000F1D12948006800F4003010B10120009027
:1008A00001E0002000900098012843D1234800680F
:1008B00040F01000214908600846006820F003005D
:1008C00008600846006840F0020008601A48406866
:1008D000194948600846406848600846406840F446
:1008E000806048600846406820F47C1048600846F4
:1008F000406840F4E81048600846006840F08070A6
:10090000086000BF0C48006800F000700028F9D0B3
:100910000948406820F003000749486008464068DD
:1009200040F00200486000BF0348406800F00C003F
:100930000828F9D10CBD0000001002400020024040
:1009400010B500F0EFF810BD10B51348006840F086
:1009500001001149086008464068104908400E49E6
:100960004860084600680E4908400B490860084680
:10097000006820F4802008600846406820F4FE00EB
:1009800048604FF41F008860FFF765FF4FF000607C
:100990000449086010BD0000001002400000FFF88C
:1009A000FFFFF6FE08ED00E010B50121880700F01A
:1009B0004CF8012803D10121800700F037F80748DF
:1009C0000088401C0549088008460088022804DB8E
:1009D0000020088001200249087010BD040000209A
:1009E0000200002010B501210D4800F02EF801286A
:1009F00003D101210A4800F019F80A480088401C78
:100A000000B2084908800846B0F90000B0F57A7FC6
:100A100004DB0020088001200349087010BD00009D
:100A2000000C00400600002003000020CA430282A0
:100A3000704721B1028842F00102028004E002887E
:100A40004FF6FE731A400280704730B50246002010
:100A500000230024158A05EA0103958905EA0104AB
:100A600013B10CB1012000E0002030BD1AB1838920
:100A70000B43838102E083898B43838170470000AD
:100A8000002202881D4B98420ED01D4B98420BD07D
:100A9000B0F1804F08D01B4B984205D01A4B9842BA
:100AA00002D01A4B984204D14FF68F731A404B88EC
:100AB0001A43174B984207D0164B984204D04FF672
:100AC000FF431A40CB881A4302808B8883850B88AA
:100AD00003850A4B98420BD0094B984208D00E4B25
:100AE000984205D00D4B984202D00D4B984201D14F
:100AF0000B7A03860123838270470000002C01409B
:100B0000003401400004004000080040000C004098
:100B1000001000400014004000400140004401402B
:100B2000004801400448006820B103480068401EA6
:100B300001490860704700000800002000BFFEE780
:100B400002E008C8121F08C1002AFAD17047704796
:100B5000002001E001C1121F002AFBD17047FFF7FE
:100B6000C3FCFFF7A7FC03E0FFF778FDFFF76FFD7D
:100B7000FAE70000940B00080000002020000000AD
:100B8000400B0008B40B0008200000200004000007
:100B9000500B0008000000000000000000000000F2
:100BA00000A24A040000000000000000010203044B
:040BB0000607080923
:0400000508000131BD
:00000001FF
