:020000040800F2
:1000000068080020450100089D100008310E000816
:1000100099100008690300086B1F00080000000029
:100020000000000000000000000000004116000871
:10003000CF0B000800000000CD110008E9170008F0
:100040005F0100085F0100085F0100085F01000810
:100050005F0100085F0100085F0100085F01000800
:100060005F0100085F0100085F0100085F010008F0
:100070005F0100085F0100085F0100085F010008E0
:100080005F0100085F0100085F0100085F010008D0
:100090005F0100085F0100085F0100085F010008C0
:1000A0005F0100085F0100085F0100085F010008B0
:1000B000511800088D1800085F0100085F01000852
:1000C0005F0100085F0100085F0100085F01000890
:1000D0005F010008091C00085F0100085F010008BB
:1000E0005F0100085F0100085F0100085F01000870
:1000F0005F0100085F0100085F0100085F01000860
:100100005F0100085F010008B51800085F010008E2
:100110005F0100085F0100085F0100085F0100083F
:100120005F0100085F010008090900085F0100087D
:10013000DFF80CD000F018F8004800473120000824
:10014000680800200648804706480047FEE7FEE7AB
:10015000FEE7FEE7FEE7FEE7FEE7FEE7FEE7FEE777
:10016000F117000831010008064C074D06E0E06871
:1001700040F0010394E8070098471034AC42F6D3EE
:10018000FFF7DAFF702000089020000870B58C1887
:1001900010F8015B15F0070301D110F8013B2A119B
:1001A00006D110F8012B03E010F8016B01F8016B88
:1001B0005B1EF9D12B0705D40023521E0DD401F884
:1001C000013BFAE710F8013BCB1A921C03E013F84D
:1001D000015B01F8015B521EF9D5A142D8D3002082
:1001E00070BD21B1826842F00102826003E0826842
:1001F00022F001028260704721B1826842F480726D
:10020000826003E0826822F480728260704721B1CC
:10021000826842F48012826003E0826822F48012D5
:1002200082607047014600208A6802F004020AB129
:10023000012000E000207047014600208A6802F09B
:1002400008020AB1012000E00020704730B50246E4
:100250000020002350680F4C20400D790C6844EAC0
:1002600005242043506090680B4C2040D1E9025493
:100270002C434D7944EA450420439060D06A20F431
:1002800070000C7C641EE4B2234340EA0350D06249
:1002900030BD0000FFFEF0FFFDF7F1FFF0B50446B2
:1002A0000D4600200021092D11DDE068A5F10A06A8
:1002B00006EB4607072606FA07F18843A5F10A066A
:1002C00006EB460603FA06F10843E0600CE02069FD
:1002D00005EB4507072606FA07F1884305EB4506B7
:1002E00003FA06F108432061072A0FDA606B561EF5
:1002F00006EB86071F2606FA07F18843561E06EB13
:10030000860605FA06F10843606322E00D2A0FDA3B
:10031000206BD61F06EB86071F2606FA07F18843D7
:10032000D61F06EB860605FA06F10843206310E0A7
:10033000E06AA2F10D0606EB86071F2606FA07F112
:100340008843A2F10D0606EB860605FA06F108437E
:10035000E062F0BD816841F008018160704781680A
:1003600041F004018160704700BFFEE700200149B1
:10037000087070470F000020002001490870704786
:100380000E00002000B587B04FF4004000F096FF4B
:100390000121480200F0CEFF0121042000F0CAFF35
:1003A0000220ADF8180000208DF81B0006A91E4899
:1003B00000F082FC0020019001208DF80800002050
:1003C0008DF809004FF400200390002004900120D4
:1003D0008DF8140001A91548FFF738FF0723012203
:1003E00011461248FFF75AFF01211048FFF704FF9A
:1003F00001210E48FFF70BFF01210C48FFF7F1FE2A
:100400000A48FFF7A7FF00BF0848FFF715FF0028BD
:10041000FAD10648FFF7A3FF00BF0448FFF702FF29
:100420000028FAD107B000BD0008014000240140B7
:1004300000B585B00121042000F07CFF01214807B0
:1004400000F058FF1020ADF8100003208DF81200C6
:1004500000208DF8130004A90C4800F02DFC2C207E
:1004600000900020019002900390694600F022FA6B
:100470000121002000F008FA0021084600F034FABB
:100480000121002000F0ECF905B000BD000801409A
:1004900000B58BB00121084600F01CFF114800F0A8
:1004A0006DFA11480090114801900020029001203F
:1004B000039000200490802005904000069080006A
:1004C000079020200890C001099000200A906946FA
:1004D000044800F018FB0121024800F043FA0BB079
:1004E00000BD0000080002404C240140160000201E
:1004F00003B58DB00121022000F0ECFE1A4800F097
:100500003DFA1A4802900D9803900E98059010201D
:100510000490002006908020079040000890800002
:10052000099020200A9000020B9000200C9002A954
:100530000D4800F0E8FA3A208DF8040000208DF80C
:1005400005008DF8060001208DF8070001A800F0D5
:10055000B3FD01220221044800F0CCFA0121024837
:1005600000F000FA0FB000BD3004024008740040F3
:1005700008B50121102000F0DDFE1020ADF80000CC
:1005800003208DF8020010208DF8030069460D4805
:1005900000F092FB012210210A4800F021FC2020EB
:1005A000ADF8000003208DF8020010208DF8030044
:1005B0006946044800F080FB00222021014800F039
:1005C0000FFC08BD0010014010B54FF4A06000F012
:1005D000ABFD10BD10B500F0CDFE4FF4803000F043
:1005E0008BFF00F0E7FF0446012C24D1102000F01F
:1005F00049FB022000F054FB002000F071FF0020B6
:1006000000F0ACFFA00200F09DFF4FF4E0112004C9
:1006100000F0B6FF012000F0ADFF00BF392000F070
:1006200039FF0028FAD0022000F0B8FF00BF00F028
:100630004FFF0828FBD110BD7FB505460C460121B0
:10064000084600F057FEADF80850ADF80440002011
:10065000ADF80A00ADF8060001A94FF0804001F0A6
:1006600075FA01221146900701F05DFA1C208DF801
:10067000000000208DF8010003208DF80200012009
:100680008DF80300684600F017FD0121880701F08E
:1006900038F97FBD7FB505460C460121022000F0E8
:1006A00029FEADF80850ADF804400020ADF80A006E
:1006B000ADF8060001A90F4801F048FA20210D48C5
:1006C00001F03AFA012211460A4801F02CFA1D20E5
:1006D0008DF8000001208DF801008DF802008DF8E2
:1006E0000300684600F0E8FC0121024801F009F926
:1006F0007FBD0000000400403EB505460C460121C8
:10070000042000F0F7FD0C4801F008F9ADF80450A2
:10071000ADF800400020ADF80600ADF802006946D3
:10072000054801F013FA2021034801F005FA0121E0
:10073000014801F0E6F83EBD000800407FB50546DF
:100740000C460121082000F0D5FDADF80850ADF8A9
:1007500004400020ADF80A00ADF8060001A90E48DB
:1007600001F0F4F9012211460B4801F0DCF93220C6
:100770008DF8000000208DF8010003208DF80200A4
:1007800001208DF80300684600F096FC0121024824
:1007900001F0B7F87FBD0000000C004010B586B036
:1007A00004460121880300F0C5FD0121042000F06A
:1007B000C1FD4FF40070ADF8140018208DF817003B
:1007C00003208DF8160005A9224800F075FA4FF4B1
:1007D0008060ADF8140004208DF8170005A91D48AD
:1007E00000F06AFA01A801F050FB01940020ADF876
:1007F0000800ADF80A00ADF80C000C20ADF80E00B2
:100800000020ADF8100001A9134801F0C9FA252015
:100810008DF8000001208DF801008DF802008DF8A0
:100820000300684600F048FC012240F225510A48C6
:1008300001F091FA012240F22771074801F08BFA8A
:100840000121054801F044FA00200449087006B06F
:1008500010BD0000000801400038014014000020D5
:1008600039B1084A1268012383401A43054B1A60C4
:1008700006E0044A1268012383409A43014B1A6040
:10088000704700000074004041B1094A12684FF4FB
:10089000805383401A43064B1A6007E0044A1268EB
:1008A0004FF4805383409A43014B1A607047000015
:1008B0000074004030B5002200230A4C226840F644
:1008C000FE748440A243D1E900452C438D682C433B
:1008D000CD6844EA050303FA00F42243014C226088
:1008E00030BD00000074004008B500220092054AA7
:1008F000009200F10802009B1A440092009A1160D5
:1009000008BD00000074004010B50B4800F0DCF892
:1009100080B13A2000F01F0201219140074A4309AB
:1009200042F8231000BF064800F00EF8054803C83F
:10093000FFF7DEFD10BD00000002001080E200E0C5
:10094000000100101800002000F0805111B103498F
:10095000086001E00249486070470000040402405A
:100960000000024021B1026842F00102026004E08E
:1009700002684FF6FE731A400260704701684FF636
:10098000FE72114001600021016041608160C16020
:100990004B49884208D14A490839496841F00F015A
:1009A000474A083A51608AE045491431884208D1E3
:1009B00043490839496841F0F001414A083A516019
:1009C0007DE03F492831884208D13D4908394968CE
:1009D00041F470613A4A083A516070E038493C315C
:1009E000884208D136490839496841F47041344A8F
:1009F000083A516063E032495031884208D13049A9
:100A00000839496841F470212D4A083A516056E08E
:100A10002B496431884208D129490839496841F491
:100A20007001274A083A516049E0254978318842E7
:100A300008D123490839496841F07061204A083AD1
:100A400051603CE01F49884206D1011F096841F00E
:100A50000F01021F116032E01A491431884208D197
:100A60001849091F096841F0F001164A121F116068
:100A700025E014492831884208D11249091F096824
:100A800041F470610F4A121F116018E00D493C31AA
:100A9000884208D10B49091F096841F47041094A8D
:100AA000121F11600BE007495031884207D10549F8
:100AB000091F096841F47021024A121F1160704732
:100AC000080002400804024001460020002201F014
:100AD000805313B1054B1A6801E0054B1A6802EA0E
:100AE00001030BB1012000E0002070470004024028
:100AF000000002401AB103680B43036002E0036880
:100B00008B430360704710B50022026847F6F0730C
:100B10009A430C6A8B6823430C6923434C69234333
:100B20008C692343CC6923434C6A23438C6A234357
:100B30001A430260CB6843600B6883604B68C360F4
:100B400010BD30B50346002016E0B3F900509C6894
:100B5000645D0C541C88641C24B21C80B3F90040F2
:100B6000B3F90450AC4201DB00241C80441C20B2C9
:100B7000DC88641E24B2DC80B3F90640002C01DD61
:100B80009042E2DB30BD30B50346002018E0B3F9F7
:100B900000509C6834F8154021F810401C88641CF3
:100BA00024B21C80B3F90040B3F90450AC4201DB1D
:100BB00000241C80441C20B2DC88641E24B2DC802B
:100BC000B3F90640002C01DD9042E0DB30BD7047F8
:100BD00070B50346002016E00C5CB3F902609D6816
:100BE000AC555C88641C24B25C80B3F90240B3F954
:100BF0000450AC4201DB00245C80441C20B2DC8841
:100C0000641C24B2DC80B3F90640B3F90450AC4252
:100C100001DA9042E0DB70BD70B50346002018E0B9
:100C200031F81040B3F902609D6825F816405C88E1
:100C3000641C24B25C80B3F90240B3F90450AC42A6
:100C400001DB00245C80441C20B2DC88641C24B2DC
:100C5000DC80B3F90640B3F90450AC4201DA9042AB
:100C6000DEDB70BD10B5012004490870012240F29E
:100C70002771034801F06FF810BD00001400002038
:100C8000003801400549096821F01001034A11604C
:100C900011460968014311607047000000200240BE
:100CA00001460020034A106800F038000843106035
:100CB00070470000002002402DE9F0410246002567
:100CC0000026002000230024002791F803C00CF028
:100CD0000F0591F803C00CF0100CBCF1000F03D00D
:100CE00091F802C04CEA050591F800C0BCF1000F74
:100CF00031D0146800202BE04FF0010C0CFA00F307
:100D0000B1F800C00CEA03069E4220D183004FF0E8
:100D10000F0C0CFA03F7BC4305FA03FC4CEA04047D
:100D200091F803C0BCF1280F06D14FF0010C0CFA6A
:100D300000FCC2F814C00AE091F803C0BCF1480FEF
:100D400005D14FF0010C0CFA00FCC2F810C0401C99
:100D50000828D1D31460B1F800C0BCF1FF0F34DD16
:100D6000546800202EE000F1080C4FF0010808FA4A
:100D70000CF3B1F800C00CEA03069E4221D18300B7
:100D80004FF00F0C0CFA03F7BC4305FA03FC4CEAD6
:100D9000040491F803C0BCF1280F05D100F1080C40
:100DA00008FA0CF8C2F8148091F803C0BCF1480F9F
:100DB00007D100F1080C4FF0010808FA0CF8C2F84E
:100DC0001080401C0828CED35460BDE8F081024654
:100DD0000020D3680B400BB1012000E000207047D9
:100DE0000AB1016100E041617047000001480078EC
:100DF000704700000F000020014800787047000095
:100E00000E00002000487047E800002000487047AE
:100E10002000002000487047B001002003490A6804
:100E200002604A684260098901817047A802002077
:100E300000BFFEE710B540F2CF2140F21F30FFF7B0
:100E400029FCFFF79FFAFFF723FB642202490348BE
:100E500000F0BCF810BD0000A003002094030020A7
:100E600010B5FFF7D3FF0849086064204860FFF71A
:100E7000DFFA40F2CF2140F21F30FFF73DFC02487D
:100E800003C8FFF735FB10BD1800002010B500F0B7
:100E9000AFFC00F04EF800F013F84FF4E13000F032
:100EA000A8F800F087F800F007F800F04FF8FFF717
:100EB000C1FFFFF7D5FF10BD10B5FFF759FB10BDFF
:100EC00010B5FFF781FB10BD00210C4A1170517065
:100ED0009170002005E000220849C91C0A54411CF9
:100EE00008B20728F7DB0021044A5172044A117046
:100EF000044A1170044A117070470000A8020020D3
:100F00000A0000200B0000200C000020704730B5C4
:100F10000B460024048044808280C48083600021CA
:100F200004E0002485686C544C1C21B29142F8DB2B
:100F300030BD10B5FFF74EFB10BD704710B5FFF781
:100F4000C3FFFFF7FAFFFFF7E1FF10BD30B516480A
:100F500000684FF47A72B0FBF2F1B1F1807F01D3F7
:100F600001201DE021F07F40401E4FF0E022506143
:100F700050170F22002807DA13071D0E0B4B00F045
:100F80000F04241F1D5503E013071C0E084B1C54AF
:100F900000BF00204FF0E022906107201061002088
:100FA00008B100BFFEE730BD9002002018ED00E060
:100FB00000E400E010B5472140F2E730FFF73CFBCA
:100FC000472140F2E730FFF7B9FB10BD30B50B46C3
:100FD0000024048044808280C4808360002105E076
:100FE0000024856825F811404C1C21B29142F7DBA2
:100FF00030BD10B5044600F005F82046FFF7CEFBE3
:1010000010BD000010B5002406E000200949085575
:1010100009490855601C04B2642CF6DB64220549BA
:101020000648FFF774FF642203490548FFF76FFF86
:1010300010BD0000CC02002030030020B4020020CC
:10104000C002002070B5044611480088401C1049B9
:10105000088008460088A04219DB00200880102183
:101060000C48FFF7B4FEC0F10100C5B22A461021BA
:101070000848FFF7B5FE20210648FFF7A8FEC0F19B
:101080000100C5B22A4620210248FFF7A9FE70BD23
:10109000080000200010014000BFFEE7704700007C
:1010A00000F01F0201219140024A430942F8231037
:1010B0007047000080E200E070B5002100230F229D
:1010C000C47804B3154C246804F4E064C4F5E06407
:1010D000210AC1F10403CA40447804FA03F1847878
:1010E0001440214309010E4C0678A155047804F000
:1010F0001F050124AC4005786D11AD0005F1E02518
:10110000C5F8004109E0047804F01F050124AC4053
:10111000044D0678761145F8264070BD0CED00E0D0
:1011200000E400E080E100E002490143024A11606E
:10113000704700000000FA050CED00E01CB5044605
:10114000207818B9FFF762FE00900CE020780128A3
:1011500003D1FFF75FFE009005E02078022802D15E
:10116000FFF750FE009064200190DDE9000100F0DF
:10117000BFFA00201CBD70B50446002520788028E9
:1011800003DA0125204600F002F8284670BD10B5AC
:101190000378002208210DE05406220E445C42EA46
:1011A000D412445C44F080044454445C1C44E3B2D4
:1011B0004C1EE1B20129EFDC42F080044470447817
:1011C0001C44E3B243F08004447210BD704710B574
:1011D000FFF70CFE08B1FFF7C9F810BD1CB5FFF70B
:1011E0000BFE002838D00121684600F01BFA18B128
:1011F0009DF8000000F038F818480078401C1749A6
:10120000087008460078042821DB01A800F0EEF9F8
:10121000D0B1BDF80400C0EBC01040F6FF7190FBE8
:10122000F1F0C4B20E480F49097844540D480078D3
:10123000401C0C49087008460078052804DB002093
:101240000870074800F036FA002004490870FA20B8
:10125000FFF7F8FEFFF790F81CBD0000000000202B
:10126000020000200100002030B587B0044617E0DE
:1012700001A8FFF7D3FD01A807C804AB07C39DF879
:10128000100071280AD10DF11300FFF757FF054632
:101290002A468021712000F0D4F900E000BF00BF91
:1012A000204600F0FFFD0028E2D107B030BD014626
:1012B000C88808B9012070470020FCE701460020DB
:1012C000034A506820F440400843506070470000D3
:1012D0000010024029B1064A52690243044B5A6188
:1012E00004E0034A52698243014B5A61704700008F
:1012F0000010024029B1064AD2690243044BDA6168
:1013000004E0034AD2698243014BDA61704700006E
:101310000010024029B1064A12690243044B1A61C7
:1013200004E0034A12698243014B1A6170470000CE
:101330000010024029B1064A92690243044B9A61A7
:1013400004E0034A92698243014B9A6170470000AE
:101350000010024029B1064AD2680243044BDA6009
:1013600004E0034AD2688243014BDA607047000010
:10137000001002400F48006840F001000D4908606D
:10138000084640680C4908400A4948600846006819
:101390000A490840074908600846006820F4802090
:1013A00008600846406820F4FE0048604FF41F00C3
:1013B00088607047001002400000FFF8FFFFF6FE53
:1013C00030B500210022002400232D4D6D6805F06A
:1013D0000C0121B1042905D0082923D105E0294DAC
:1013E000056022E0274D05601FE0254D6D6805F47E
:1013F0007012234D6D6805F48034022505EB92428E
:101400001CB9214D554305600BE01D4D6D6805F479
:1014100000351DB11C4D5543056002E0194D554383
:10142000056002E0174D056000BF00BF144D6D68F8
:1014300005F0F0010909154D6B5C0568DD4045605C
:101440000F4D6D6805F4E061090A104D6B5C45684D
:10145000DD4085600A4D6D6805F46051C90A0B4D89
:101460006B5C4568DD40C560054D6D6805F4404125
:10147000890B074D6B5CC568B5FBF3F5056130BDA5
:101480000010024000127A0000093D00780200209E
:101490008802002010B501460022002300204A11D6
:1014A000012A02D1094C236806E0022A02D1074C26
:1014B000236A01E0054C636A01F01F020124944095
:1014C0001C400CB1012000E0002010BD00100240C3
:1014D0000248406800F00C00704700000010024015
:1014E00001460020034A506820F0F0000843506095
:1014F00070470000001002401149096821F4803152
:101500000F4A11601146096821F480211160B0F57D
:10151000803F03D0B0F5802F0ED106E0084909685E
:1015200041F48031064A116007E00549096841F439
:10153000A021034A116000E000BF00BF7047000017
:101540000010024001460020034A506820F4E06089
:101550000843506070470000001002400146002020
:10156000034A506820F4605040EAC1005060704760
:101570000010024001490866704700000000424226
:1015800002460020044B586820F47C1042EA010314
:101590001843014B5860704700100240014600207C
:1015A000034A506820F00300084350607047000071
:1015B0000010024038B5002000900024002500BF34
:1015C0003120FFF767FF05460098401C0090009807
:1015D000B0F5A06F01D0002DF2D03120FFF75AFFF7
:1015E00008B1012400E00024204638BD70B504464F
:1015F0000025012221460348FFF7C5FAC5B2284657
:1016000070BD00009403002070B50446002501223F
:1016100021460348FFF795FAC5B2284670BD000081
:10162000B402002070B504460D4600262A46214625
:101630000248FFF786FAC6B2304670BDC0020020ED
:101640007047FEB504460E46154601208DF8000091
:1016500004208DF802008DF803408DF804608DF8A9
:10166000055000218DF806108DF807108DF8081030
:10167000684600F011F8FEBD10B50446E1B2054819
:1016800000F0FFFB00BF4021024800F02DFB0028C6
:10169000F9D010BD0038014070B504460025204641
:1016A000FFF769FD0546002D03DD0A21204600F005
:1016B00077FC70BD3EB5044671208DF80000012016
:1016C0008DF8020020788DF8030061788DF8041001
:1016D000A1788DF80510E1788DF8061021798DF844
:1016E000071000218DF808106846FFF7D5FF3EBDB2
:1016F00003B50248DDE9001206C00CBD1800002049
:1017000010B500F001F810BD0CB50020019000905C
:101710003348006840F480303149086000BF3048E9
:10172000006800F4003000900198401C019000987F
:1017300018B90198B0F5A06FF1D12948006800F4FC
:10174000003010B10120009001E0002000900098CE
:10175000012843D12348006840F010002149086067
:101760000846006820F0030008600846006840F062
:10177000020008601A4840681949486008464068F5
:1017800048600846406840F4806048600846406809
:1017900020F47C1048600846406840F4E810486037
:1017A0000846006840F08070086000BF0C48006880
:1017B00000F000700028F9D00948406820F00300CC
:1017C000074948600846406840F00200486000BF92
:1017D0000348406800F00C000828F9D10CBD000057
:1017E000001002400020024010B500F001FA10BDC8
:1017F00010B51348006840F0010011490860084620
:101800004068104908400E494860084600680E4983
:1018100008400B4908600846006820F480200860F2
:101820000846406820F4FE0048604FF41F008860BE
:10183000FFF766FF4FF000600449086010BD00002C
:10184000001002400000FFF8FFFFF6FE08ED00E088
:1018500010B50121880700F055F9012803D10121B5
:10186000800700F04BF807480088401C05490880B5
:1018700008460088022804DB002008800120024975
:10188000087010BD100000200E00002010B50121CE
:10189000064800F037F918B10121044800F02EF88D
:1018A0000348008800F064FB10BD00000004004005
:1018B0001600002010B501210D4800F023F9012881
:1018C00003D101210A4800F019F80A480088401C99
:1018D00000B2084908800846B0F90000B0F57A7FE8
:1018E00004DB0020088001200349087010BD0000BF
:1018F000000C0040120000200F000020CA430282AA
:10190000704721B1028842F00102028004E002889F
:101910004FF6FE731A4002807047000010B504466F
:101920006848844208D10121C014FFF713FD00214B
:10193000E014FFF70FFDC4E0B4F1804F08D101219E
:101940000846FFF7E7FC00210120FFF7E3FCB8E0C1
:101950005D48844208D101210220FFF7DBFC002111
:101960000220FFF7D7FCACE05848844208D101219F
:101970000420FFF7CFFC00210420FFF7CBFCA0E000
:101980005348844208D101210820FFF7C3FC0021FD
:101990000820FFF7BFFC94E04E48844208D10121A3
:1019A0001020FFF7B7FC00211020FFF7B3FC88E000
:1019B0004948844208D101212020FFF7ABFC0021D7
:1019C0002020FFF7A7FC7CE04448844208D1012195
:1019D0004014FFF7BFFC00216014FFF7BBFC70E070
:1019E0003F48844209D10121C804FFF7B3FC00211C
:1019F0004FF40020FFF7AEFC63E03A48844209D17F
:101A000001210805FFF7A6FC00214FF48010FFF725
:101A1000A1FC56E03448844209D101214805FFF772
:101A200099FC00214FF40010FFF794FC49E02F4887
:101A3000844208D101214020FFF76CFC00214020A6
:101A4000FFF768FC3DE02A48844208D1012180204C
:101A5000FFF760FC00218020FFF75CFC31E02548A7
:101A6000844208D101218015FFF754FC0021A01504
:101A7000FFF750FC25E02048844209D101210804E9
:101A8000FFF768FC00214FF48030FFF763FC18E09B
:101A90001A48844209D101214804FFF75BFC002168
:101AA0004FF40030FFF756FC0BE01548844208D194
:101AB00001218804FFF74EFC00214FF48020FFF73E
:101AC00049FC10BD002C014000040040000800400B
:101AD000000C0040001000400014004000340140A1
:101AE000004C0140005001400054014000180040EB
:101AF000001C004000200040004001400044014024
:101B00000048014030B50246002000230024158A19
:101B100005EA0103958905EA010413B10CB101201E
:101B200000E0002030BD1AB183890B43838102E0BD
:101B300083898B438381704782884FF68F731A4065
:101B4000828082880A4382807047000000220288D7
:101B50001D4B98420ED01D4B98420BD0B0F1804FD8
:101B600008D01B4B984205D01A4B984202D01A4B12
:101B7000984204D14FF68F731A404B881A43174B83
:101B8000984207D0164B984204D04FF6FF431A40B4
:101B9000CB881A4302808B8883850B8803850A4B88
:101BA00098420BD0094B984208D00E4B984205D072
:101BB0000D4B984202D00D4B984201D10B7A03860F
:101BC0000123838270470000002C01400034014053
:101BD0000004004000080040000C004000100040DD
:101BE0000014004000400140004401400048014012
:101BF0000448006820B103480068401E014908609D
:101C0000704700008C02002008B50020009040F2D0
:101C10002551204800F075F858B12520FFF740FA0B
:101C20001C4800F029F9C0B200909DF8000000F0B7
:101C3000ABF90821174800F057F8012806D1082110
:101C4000144800F02DF8134800F016F940F22771FF
:101C5000104800F056F8E0B140F227710D4800F04E
:101C600028F82520FFF71CFA6846FFF7CDFC9DF801
:101C70000010084800F005F90748FFF718FB40B1CD
:101C8000002006490870002240F22771014800F048
:101C900062F808BD00380140B402002014000020A2
:101CA00001F40072B2F5007F00D100BFCA43028088
:101CB000704710B50022002340F66A14A14200D1FB
:101CC00000BF0A1201249440A3B2DC43048010BD7B
:101CD00021B1828942F40052828104E082894DF66A
:101CE000FF731A408281704702460020B1F5007FE1
:101CF00000D100BF13880B400BB1012000E0002091
:101D0000704770B50246002400230025002040F6ED
:101D10006A16B14200D100BFC1F3421501F01F03A2
:101D2000012606FA03F3012D02D19689334006E01D
:101D3000022D02D1168A334001E0968A33400C12FC
:101D4000012606FA04F41688344013B10CB10120C0
:101D500000E0002070BDF0B50346002400260025F9
:101D6000002040F66A17B94200D100BF1846C1F3FF
:101D7000421401F01F06012707FA06F5012C01D1D4
:101D80000C3004E0022C01D1103000E014301AB104
:101D900007682F43076002E00768AF430760F0BDA4
:101DA0002DE9F04786B005460E460024A24600BF46
:101DB000A1460027B08900B100BF2F462C8A4CF6FF
:101DC000FF700440F08804432C82AC894EF6F31077
:101DD0000440B08831890843718908430443AC81C9
:101DE000AC8A4FF6FF400440B0890443AC8201A89E
:101DF000FFF7E6FA1F48874202D1DDF810A001E0A4
:101E0000DDF80CA0A88900F4004040B10AEBCA003C
:101E100000EB0A1031684900B0FBF1F807E00AEB6B
:101E2000CA0000EB0A1031688900B0FBF1F86420A9
:101E3000B8FBF0F004012009642101FB1089A88996
:101E400000F4004040B1322000EBC900B0FBF1F0DB
:101E500000F00700044308E0322000EB0910642181
:101E6000B0FBF1F000F00F0004432C8106B0BDE898
:101E7000F08700000038014001468888C0F3080060
:101E80007047C1F30802828070474FF41651016019
:101E900000218180C18001810C214181002181814B
:101EA0007047000070B5044600261B4D1B480078A3
:101EB00010B3802C1CDB1A4800782C54184800788A
:101EC000401C1749087017480078401E15490870D3
:101ED0000846007800281CDC114800780A2818D130
:101EE000284600F021F8064600200C49087010E052
:101EF00000200A4908700CE0802C0ADA0920094900
:101F00000870012006490870034804700120034945
:101F10000870304670BD0000A80200200B000020B1
:101F20000A0000200C00002030B501460C784B78E8
:101F3000E018C4B202220BE0885C2044C4B203F073
:101F40000105885C65F3DF1088545B10501CC2B239
:101F5000092AF1DB04F07F004D7A05F07F05A842E5
:101F600001D0002030BD0120FCE700BFFEE70000EB
:101F700031B50024012269460248FEF74DFEC4B285
:101F8000204638BD9403002031B500240122694663
:101F90000248FEF71DFEC4B2204638BDC002002034
:101FA00070B504460D4600262A4621460648FEF72F
:101FB0000FFEC6B2642E04DA0448007808B9FEF7B2
:101FC00051FE304670BD0000B40200201400002015
:101FD000014A024900F013B821200008A4020020A1
:101FE00002E008C8121F08C1002AFAD170477047E2
:101FF000002001E001C1121F002AFBD170472DE92A
:10200000F04116460F460446002503E03946B04726
:10201000641C6D1C20780028F8D12846BDE8F081AA
:1020200070B504460D46E0B2FFF726FB204670BDB2
:10203000FEF784FFFEF72AFF04A0FFF7C9FF03E0C5
:10204000FFF7CCF8FFF7C3F8FAE70000496E6974B0
:102050002053797374656D20686173206265656EC5
:102060002066696E69736865642E0D0A00000000C1
:102070009020000800000020A80200008C01000849
:1020800024220008A8020020C0050000F01F00085C
:10209000012114088008182F097F09FD09780AF129
:1020A0000A670BDA0B490CB30C190D790DD40D2905
:1020B0000E780EC00E020F3C0F6F0F9B0FBF0FDB91
:1020C0000FEF0FFB0FFF041AEF0C1ABF141A6F1C4F
:1020D0001C020FC0281C290ED4341810190DB30C83
:1020E000490CDA0B670BF10A780AFD58111A0960DE
:1020F0001023087F07FF068006020687050E059855
:10210000042504B6034C03E60286022B02D601879F
:10211000013F01FD12C312901264124012241210EA
:1021200032041A04081A24101A641812C312FD1A71
:102130003F281CD6012B341810E6024C03B60325A9
:102140000498040E05870502580564FF067F071AE8
:10215000FFFC095E0221125212A412F6102B480154
:102160009901EB013D028F02E10233038503D7039E
:1021700029047B04CD041E057005C20514066606FD
:10218000B8060A075C07AE071831085108A308F51E
:102190000847099909EB093D0A8F0AE10A330B84C4
:1021A0000BD60B280C7A0CCC0C1E0D700DC20D1426
:1021B0000E660EB70E090F5B0FAD661AAD081C094F
:1021C0000FB7141C140EC2201C1E0DCC2C1C280C86
:1021D000D6381C330BE1441C3D0AEB501C4709F573
:1021E0005C1351081B08AE6C1C0A07B8781C140657
:1021F000C2841C1E05CD901C2904D79C1C3303E10E
:10220000A81C3D02EBB41C4801F6C052522D01023D
:102210000304045009060708090204060884A24AB8
:0422200004691C41F0
:0400000508000131BD
:00000001FF
