:020000040800F2
:1000000028050020490100084D0800089D06000849
:1000100049080008BD010008931200080000000014
:10002000000000000000000000000000C10C0008FB
:100030006504000800000000F9080008FD0D000834
:100040006301000863010008630100086301000800
:1000500063010008630100086301000863010008F0
:1000600063010008630100086301000863010008E0
:1000700063010008630100086301000863010008D0
:1000800063010008630100086301000863010008C0
:1000900063010008630100086301000863010008B0
:1000A00063010008630100086301000863010008A0
:1000B000650E000863010008A10E00086301000836
:1000C0006301000863010008630100086301000880
:1000D00063010008F90F00086301000863010008CC
:1000E0006301000863010008630100086301000860
:1000F0006301000863010008630100086301000850
:10010000630100086301000863010008630100083F
:10011000630100086301000863010008630100082F
:10012000630100086301000863010008630100081F
:10013000DFF810D000F030F80048004745160008FE
:10014000AFF3008028050020064880470648004796
:10015000FEE7FEE7FEE7FEE7FEE7FEE7FEE7FEE777
:10016000FEE7FEE7050E00083101000830B50B463A
:10017000014600202022012409E021FA02F59D42D7
:1001800005D303FA02F5491B04FA02F52844151EAB
:10019000A2F10102F1DC30BD064C074D06E0E0683B
:1001A00040F0010394E8070098471034AC42F6D3BE
:1001B000FFF7C2FFA0160008C016000800BFFEE748
:1001C00000200149087070470D00002000200149FF
:1001D000087070470C00002008B50121102000F0C5
:1001E000C7FB1020ADF8000003208DF8020010209E
:1001F0008DF8030069460D4800F08EF901221021A8
:100200000A4800F01DFA2020ADF8000003208DF808
:10021000020010208DF803006946044800F07CF9C4
:1002200000222021014800F00BFA08BD0010014017
:1002300010B54FF4A06000F04FFB10BD10B500F0FA
:10024000A7FB4FF4803000F065FC00F0C1FC0446D1
:10025000012C24D1102000F045F9022000F050F9C3
:10026000002000F04BFC002000F086FCA00200F013
:1002700077FC4FF4E011200400F090FC012000F026
:1002800087FC00BF392000F013FC0028FAD00220C0
:1002900000F092FC00BF00F029FC0828FBD110BD43
:1002A0007FB505460C460121084600F051FBADF82C
:1002B0000850ADF804400020ADF80A00ADF8060083
:1002C00001A94FF0804000F039FE0122114690074D
:1002D00000F02AFE1C208DF8000000208DF801009F
:1002E00003208DF8020001208DF80300684600F01D
:1002F000BBFA0121880700F0FAFD7FBD7FB50546F6
:100300000C460121042000F023FBADF80850ADF8A5
:1003100004400020ADF80A00ADF8060001A90E481F
:1003200000F00CFE012211460B4800F0FDFD1E20DE
:100330008DF8000000208DF8010003208DF80200E8
:1003400001208DF80300684600F08EFA0121024872
:1003500000F0CDFD7FBD00000008004010B586B064
:1003600004460121880300F003FB0121042000F072
:10037000FFFA4FF40070ADF8140018208DF8170044
:1003800003208DF8160005A9224800F0C5F84FF4A7
:100390008060ADF8140004208DF8170005A91D48F1
:1003A00000F0BAF801A800F068FF01940020ADF851
:1003B0000800ADF80A00ADF80C000C20ADF80E00F6
:1003C0000020ADF8100001A9134800F0E1FE25203F
:1003D0008DF8000001208DF801008DF802008DF8E5
:1003E0000300684600F040FA012240F225510A4815
:1003F00000F0A9FE012240F22771074800F0A3FE99
:100400000121054800F05CFE00200449087006B098
:1004100010BD00000008014000380140120000201B
:1004200030B50346002016E0B3F900509C68645DC7
:100430000C541C88641C24B21C80B3F90040B3F92E
:100440000450AC4201DB00241C80441C20B2DC8838
:10045000641E24B2DC80B3F90640002C01DD90421A
:10046000E2DB30BD7047000070B504460D4616460D
:1004700033462A46214602A000F01AFF70BD000054
:1004800042544327732074696D653A2025303264E5
:100490003A253032643A253032640A0070B503469A
:1004A000002016E00C5CB3F902609D68AC555C88D6
:1004B000641C24B25C80B3F90240B3F90450AC422E
:1004C00001DB00245C80441C20B2DC88641C24B264
:1004D000DC80B3F90640B3F90450AC4201DA904233
:1004E000E0DB70BD0549096821F01001034A116085
:1004F0001146096801431160704700000020024066
:1005000001460020034A106800F0380008431060DC
:1005100070470000002002402DE9F041024600250E
:100520000026002000230024002791F803C00CF0CF
:100530000F0591F803C00CF0100CBCF1000F03D0B4
:1005400091F802C04CEA050591F800C0BCF1000F1B
:1005500031D0146800202BE04FF0010C0CFA00F3AE
:10056000B1F800C00CEA03069E4220D183004FF090
:100570000F0C0CFA03F7BC4305FA03FC4CEA040425
:1005800091F803C0BCF1280F06D14FF0010C0CFA12
:1005900000FCC2F814C00AE091F803C0BCF1480F97
:1005A00005D14FF0010C0CFA00FCC2F810C0401C41
:1005B0000828D1D31460B1F800C0BCF1FF0F34DDBE
:1005C000546800202EE000F1080C4FF0010808FAF2
:1005D0000CF3B1F800C00CEA03069E4221D183005F
:1005E0004FF00F0C0CFA03F7BC4305FA03FC4CEA7E
:1005F000040491F803C0BCF1280F05D100F1080CE8
:1006000008FA0CF8C2F8148091F803C0BCF1480F46
:1006100007D100F1080C4FF0010808FA0CF8C2F8F5
:100620001080401C0828CED35460BDE8F0810246FB
:100630000020D3680B400BB1012000E00020704780
:100640000AB1016100E04161704700000148007893
:10065000704700000D00002001480078704700003E
:100660000C000020014621B1012906D002290CD13D
:1006700007E0074AB2F9000008E0064AB2F90000B4
:1006800004E0054AB2F9000000E000BF00BF704777
:1006900002000020040000200600002000BFFEE74A
:1006A00010B500F0AFFB00F027F800F00FF84FF4A2
:1006B000E13000F077F800F069F800F003F800F09E
:1006C00031F810BD10B5FFF787FD10BD10B5FFF76D
:1006D000AFFD10BD30B50B460024048044808280FD
:1006E000C4808360002104E0002485686C544C1CA5
:1006F00021B29142F8DB30BD10B5FFF79FFD10BD70
:100700000020034908800349088003490880704796
:1007100002000020040000200600002010B5FFF7B2
:10072000EFFF10BD30B5164800684FF47A72B0FB89
:10073000F2F1B1F1807F01D301201DE021F07F4073
:10074000401E4FF0E022506150170F22002807DAB8
:1007500013071D0E0B4B00F00F04241F1D5503E063
:1007600013071C0E084B1C5400BF00204FF0E02262
:10077000906107201061002008B100BFFEE730BD86
:100780002800002018ED00E000E400E010B547214B
:1007900040F2E730FFF784FD472140F2E730FFF7F2
:1007A000ADFD10BD10B5044600F004F82046FFF77B
:1007B000D5FD10BD10B5002406E0002009490855FC
:1007C00009490855601C04B2642CF6DB6422054913
:1007D0000648FFF77FFF642203490548FFF77AFFC9
:1007E00010BD00005C000020C0000020440000207C
:1007F0005000002070B5044611480088401C104984
:10080000088008460088A04219DB002008801021DB
:100810000C48FFF70CFFC0F10100C5B22A461021B9
:100820000848FFF70DFF20210648FFF700FFC0F141
:100830000100C5B22A4620210248FFF701FF70BD22
:10084000000000200010014000BFFEE770470000DC
:1008500000F01F0201219140024A430942F823108F
:100860007047000080E200E070B5002100230F22F5
:10087000C47804B3154C246804F4E064C4F5E0645F
:10088000210AC1F10403CA40447804FA03F18478D0
:100890001440214309010E4C0678A155047804F058
:1008A0001F050124AC4005786D11AD0005F1E02570
:1008B000C5F8004109E0047804F01F050124AC40AC
:1008C000044D0678761145F8264070BD0CED00E029
:1008D00000E400E080E100E002490143024A1160C7
:1008E000704700000000FA050CED00E001490870B7
:1008F0007047000008000020704770B5FFF7A6FEA3
:1009000090B10020FFF7AEFE06460120FFF7AAFED9
:1009100004460220FFF7A6FE05462A462146304639
:10092000FFF7A2FDFFF74CFC70BD10B5FFF794FE7A
:1009300030B100F077F9FA20FFF75CFFFFF746FCD3
:1009400010BD0146C88808B9012070470020FCE7A7
:1009500029B1064AD2690243044BDA6104E0034A32
:10096000D2698243014BDA617047000000100240F7
:1009700029B1064A92690243044B9A6104E0034A92
:1009800092698243014B9A61704700000010024057
:100990000F48006840F001000D49086008464068B3
:1009A0000C4908400A494860084600680A4908405E
:1009B000074908600846006820F48020086008465F
:1009C000406820F4FE0048604FF41F0088607047C4
:1009D000001002400000FFF8FFFFF6FE30B50021D6
:1009E0000022002400232D4D6D6805F00C0121B17B
:1009F000042905D0082923D105E0294D056022E00E
:100A0000274D05601FE0254D6D6805F47012234DDC
:100A10006D6805F48034022505EB92421CB9214D26
:100A2000554305600BE01D4D6D6805F400351DB1A3
:100A30001C4D5543056002E0194D5543056002E029
:100A4000174D056000BF00BF144D6D6805F0F00143
:100A50000909154D6B5C0568DD4045600F4D6D68FB
:100A600005F4E061090A104D6B5C4568DD40856066
:100A70000A4D6D6805F46051C90A0B4D6B5C456801
:100A8000DD40C560054D6D6805F44041890B074D9B
:100A90006B5CC568B5FBF3F5056130BD0010024025
:100AA00000127A0000093D001300002023000020FE
:100AB00010B501460022002300204A11012A02D16C
:100AC000094C236806E0022A02D1074C236A01E0A0
:100AD000054C636A01F01F02012494401C400CB1D4
:100AE000012000E0002010BD0010024002484068D4
:100AF00000F00C007047000000100240014600208A
:100B0000034A506820F0F00008435060704700002E
:100B1000001002401149096821F480310F4A116028
:100B20001146096821F480211160B0F5803F03D09F
:100B3000B0F5802F0ED106E00849096841F48031F4
:100B4000064A116007E00549096841F4A021034AFB
:100B5000116000E000BF00BF7047000000100240BD
:100B600001460020034A506820F4E06008435060CA
:100B7000704700000010024001460020034A506800
:100B800020F4605040EAC1005060704700100240FD
:100B900001490866704700000000424202460020FA
:100BA000044B586820F47C1042EA01031843014BBF
:100BB000586070470010024001460020034A506808
:100BC00020F003000843506070470000001002400E
:100BD00038B5002000900024002500BF3120FFF729
:100BE00067FF05460098401C00900098B0F5A06F84
:100BF00001D0002DF2D03120FFF75AFF08B10124B7
:100C000000E00024204638BD70B5044600250122CE
:100C100021460348FFF704FCC5B2284670BD00001A
:100C2000440000202148B0F9000040F2F31188424E
:100C300034DB1F48007880BB1E48B0F900003B2819
:100C400021DB1D48B0F900003B2812DB1B48B0F93E
:100C50000000172803DB00201849088005E017482A
:100C60000088401C00B21549088000201249088005
:100C700005E011480088401C00B20F4908800020A0
:100C80000C49088005E00B480088401C00B2094967
:100C9000088000200549088006E0FFE70348008837
:100CA000401C00B201490880704700000A00002083
:100CB00008000020060000200400002002000020A0
:100CC0007047000010B50446E1B2054800F0D1FAC3
:100CD00000BF4021024800F0FFF90028F9D010BD04
:100CE0000038014010B500F001F810BD0CB500202F
:100CF000019000903348006840F48030314908602A
:100D000000BF3048006800F4003000900198401C9B
:100D10000190009818B90198B0F5A06FF1D1294859
:100D2000006800F4003010B10120009001E00020C4
:100D300000900098012843D12348006840F010003B
:100D4000214908600846006820F003000860084652
:100D5000006840F0020008601A484068194948607D
:100D60000846406848600846406840F48060486033
:100D70000846406820F47C1048600846406840F40B
:100D8000E81048600846006840F08070086000BFC6
:100D90000C48006800F000700028F9D0094840684D
:100DA00020F00300074948600846406840F0020010
:100DB000486000BF0348406800F00C000828F9D1E3
:100DC0000CBD0000001002400020024020B10128AC
:100DD00005D0022809D105E0054A118006E0054A40
:100DE000118003E0044A118000E000BF00BF70479B
:100DF00002000020040000200600002010B500F0D2
:100E0000EFF810BD10B51348006840F0010011491B
:100E1000086008464068104908400E494860084686
:100E200000680E4908400B4908600846006820F435
:100E3000802008600846406820F4FE0048604FF4B7
:100E40001F008860FFF74EFF4FF000600449086004
:100E500010BD0000001002400000FFF8FFFFF6FE8A
:100E600008ED00E010B50121880700F04CF80128DA
:100E700003D10121800700F037F807480088401CA3
:100E80000549088008460088022804DB0020088005
:100E900001200249087010BD0E0000200C00002047
:100EA00010B501210D4800F02EF8012803D10121D1
:100EB0000A4800F019F80A480088401C00B20849A6
:100EC00008800846B0F90000B0F57A7F04DB002006
:100ED000088001200349087010BD00000008004090
:100EE000100000200D000020CA430282704721B18B
:100EF000028842F00102028004E002884FF6FE738D
:100F00001A400280704730B50246002000230024BA
:100F1000158A05EA0103958905EA010413B10CB1AC
:100F2000012000E0002030BD1AB183890B4383818A
:100F300002E083898B43838170470000002202888E
:100F40001D4B98420ED01D4B98420BD0B0F1804FF4
:100F500008D01B4B984205D01A4B984202D01A4B2E
:100F6000984204D14FF68F731A404B881A43174B9F
:100F7000984207D0164B984204D04FF6FF431A40D0
:100F8000CB881A4302808B8883850B8803850A4BA4
:100F900098420BD0094B984208D00E4B984205D08E
:100FA0000D4B984202D00D4B984201D10B7A03862B
:100FB0000123838270470000002C0140003401406F
:100FC0000004004000080040000C004000100040F9
:100FD000001400400040014000440140004801402E
:100FE0000448006820B103480068401E01490860B9
:100FF000704700003C00002008B50020009040F23F
:101000002551204800F075F858B12520FFF720FC45
:101010001C4800F029F9C0B200909DF8000000F0D3
:101020003BF90821174800F057F8012806D108219C
:10103000144800F02DF8134800F016F940F227711B
:10104000104800F056F8E0B140F227710D4800F06A
:1010500028F82520FFF7FCFB6846FFF7D5FD9DF833
:101060000010084800F005F90748FFF76AFC40B196
:10107000002006490870002240F22771014800F064
:1010800062F808BD00380140440000201200002032
:1010900001F40072B2F5007F00D100BFCA430280A4
:1010A000704710B50022002340F66A14A14200D117
:1010B00000BF0A1201249440A3B2DC43048010BD97
:1010C00021B1828942F40052828104E082894DF686
:1010D000FF731A408281704702460020B1F5007FFD
:1010E00000D100BF13880B400BB1012000E00020AD
:1010F000704770B50246002400230025002040F60A
:101100006A16B14200D100BFC1F3421501F01F03BE
:10111000012606FA03F3012D02D19689334006E039
:10112000022D02D1168A334001E0968A33400C1218
:10113000012606FA04F41688344013B10CB10120DC
:1011400000E0002070BDF0B5034600240026002515
:10115000002040F66A17B94200D100BF1846C1F31B
:10116000421401F01F06012707FA06F5012C01D1F0
:101170000C3004E0022C01D1103000E014301AB120
:1011800007682F43076002E00768AF430760F0BDC0
:101190002DE9F04786B005460E460024A24600BF62
:1011A000A1460027B08900B100BF2F462C8A4CF61B
:1011B000FF700440F08804432C82AC894EF6F31093
:1011C0000440B08831890843718908430443AC81E5
:1011D000AC8A4FF6FF400440B0890443AC8201A8BA
:1011E000FFF7FCFB1F48874202D1DDF810A001E0A9
:1011F000DDF80CA0A88900F4004040B10AEBCA0059
:1012000000EB0A1031684900B0FBF1F807E00AEB87
:10121000CA0000EB0A1031688900B0FBF1F86420C5
:10122000B8FBF0F004012009642101FB1089A889B2
:1012300000F4004040B1322000EBC900B0FBF1F0F7
:1012400000F00700044308E0322000EB091064219D
:10125000B0FBF1F000F00F0004432C8106B0BDE8B4
:10126000F08700000038014001468888C0F308007C
:101270007047C1F30802828070474FF41651016035
:1012800000218180C18001810C2141810021818167
:10129000704700BFFEE7000031B500240122694617
:1012A0000248FFF7FBF8C4B2204638BD50000020CA
:1012B0000FB4054B10B503A9044A029800F018F8C2
:1012C00010BC5DF814FB000033160008400000203D
:1012D00002E008C8121F08C1002AFAD170477047FF
:1012E000002001E001C1121F002AFBD1704700005D
:1012F0002DE9FF4F8BB088460546002606E02528DD
:101300000BD0DDE90D1290476D1C761C2878002863
:10131000F5D10FB03046BDE8F08F0024A146A246BB
:101320000122AE4900E0044315F8013F203B02FAD8
:1013300003F00842F7D128782A2810D06FF02F0246
:101340002878A0F13001092915D809EB890102EBB1
:10135000410144F0020400EB01096D1CF0E758F86C
:10136000041B5FEA010903D544F40054C9F10009E4
:1013700044F002046D1C28782E2817D115F8010FAF
:1013800044F004042A280ED06FF02F022878A0F130
:10139000300109290AD80AEB8A0102EB410100EB6E
:1013A000010A6D1CF2E758F804AB6D1C28786C2814
:1013B0000FD006DC4C2817D068280DD06A2814D12D
:1013C00004E0742810D07A280FD10DE044F4001402
:1013D0000AE044F4801401E044F440146978814246
:1013E00002D104F580146D1C6D1C2878692865D025
:1013F00006DC00288DD0632827D0642806D15DE064
:101400006E2808D073282AD0752877D0DDE90D1210
:101410009047761CE0E0C4F30250022809D003286C
:101420000DD0D8F8001004280DD00E6008F1040883
:10143000D2E0D8F80010F217C1E90062F6E7D8F858
:1014400000100E80F2E70E70F0E718F8041B8DF81C
:10145000001000208DF80100EB46012003E058F851
:1014600004BB4FF0FF3061074FF0000701D40AE0E2
:101470007F1C57450DDA8742FADB1BF8071000295D
:10148000F6D106E07F1C8742FCDB1BF80710002921
:10149000F8D1DDE90D23A9EB07008146214600F0D4
:1014A000B1F83044C61904E0DDE90D121BF8010B58
:1014B00090477F1EF8D22146484688E058F8040B32
:1014C000C4F302514FF00A0B032900D100B20429E2
:1014D00000D140B2002802DA40422D2102E021056D
:1014E00005D52B218DF82410012104E006E0E10749
:1014F00010D02021F6E708AF089113E058F8040B4C
:10150000C4F302514FF00A0B032900D180B2042921
:1015100000D1C0B20021EEE75946FEF727FE303178
:1015200007F8011D0028F7D1ADEB070000F1200BF3
:10153000600702D524F4803401E04FF0010ADA4557
:1015400002DDAAEB0B0000E00020824600EB0B015D
:1015500008980144A9EB01000A90E00306D4DDE9F4
:101560000D2321460A9800F04DF806444FF000097B
:1015700008E009A911F80900DDE90D12904709F109
:101580000109761C08998945F3DBE0030CD5DDE9F8
:101590000D2321460A9800F035F8064404E0DDE901
:1015A0000D1230209047761CBAF10001AAF1010A11
:1015B000F5DC05E0DDE90D1217F8010B9047761C0C
:1015C000BBF10001ABF1010BF4DC0A982146DDE927
:1015D0000D2300F005F806446D1C97E6092801006C
:1015E0002DE9F041044600251E461746880404D420
:1015F00005E039462020B0476D1C641EF9D5284609
:10160000BDE8F0812DE9F041044600251E469046D4
:10161000C80301D5302700E02027880404D505E061
:1016200041463846B0476D1C641EF9D52846BDE8D2
:10163000F08170B504460D46E0B2FFF743FB20464B
:1016400070BD0000FFF76AF8FFF72AF80BA0FFF75C
:101650002FFE0020FFF74AF917210020FFF7B6FB05
:101660003B210120FFF7B2FB32210220FFF7AEFB46
:1016700003E0FFF75AF9FFF740F9FAE7496E69749A
:101680002053797374656D20686173206265656E9F
:101690002066696E69736865642E0D0A000000009B
:1016A000C01600080000002044000000D01200080E
:1016B0000417000844000020E4040000E0120008C1
:1016C000000000000000000000000000000000001A
:1016D00000000000000000010203040102030406F0
:1016E000070809020406080000A24A0400000000DE
:1016F00000000000010203040607080900000000C2
:0417000000000000E5
:0400000508000131BD
:00000001FF
